{
  "contractName": "FileStorage",
  "abi": [
    {
      "inputs": [
        {
          "internalType": "address",
          "name": "",
          "type": "address"
        },
        {
          "internalType": "uint256",
          "name": "",
          "type": "uint256"
        }
      ],
      "name": "userFiles",
      "outputs": [
        {
          "internalType": "string",
          "name": "cid",
          "type": "string"
        },
        {
          "internalType": "address",
          "name": "userAddress",
          "type": "address"
        },
        {
          "internalType": "address",
          "name": "authorAddress",
          "type": "address"
        },
        {
          "internalType": "string",
          "name": "fileName",
          "type": "string"
        },
        {
          "internalType": "string",
          "name": "uploadDate",
          "type": "string"
        }
      ],
      "stateMutability": "view",
      "type": "function",
      "constant": true
    },
    {
      "inputs": [
        {
          "internalType": "uint256",
          "name": "",
          "type": "uint256"
        }
      ],
      "name": "users",
      "outputs": [
        {
          "internalType": "address",
          "name": "",
          "type": "address"
        }
      ],
      "stateMutability": "view",
      "type": "function",
      "constant": true
    },
    {
      "inputs": [
        {
          "internalType": "string",
          "name": "cid",
          "type": "string"
        },
        {
          "internalType": "address",
          "name": "userAddress",
          "type": "address"
        },
        {
          "internalType": "address",
          "name": "authorAddress",
          "type": "address"
        },
        {
          "internalType": "string",
          "name": "fileName",
          "type": "string"
        },
        {
          "internalType": "string",
          "name": "uploadDate",
          "type": "string"
        }
      ],
      "name": "storeCIDAndUserAddress",
      "outputs": [],
      "stateMutability": "nonpayable",
      "type": "function"
    },
    {
      "inputs": [
        {
          "internalType": "address",
          "name": "userAddress",
          "type": "address"
        }
      ],
      "name": "getUserFiles",
      "outputs": [
        {
          "components": [
            {
              "internalType": "string",
              "name": "cid",
              "type": "string"
            },
            {
              "internalType": "address",
              "name": "userAddress",
              "type": "address"
            },
            {
              "internalType": "address",
              "name": "authorAddress",
              "type": "address"
            },
            {
              "internalType": "string",
              "name": "fileName",
              "type": "string"
            },
            {
              "internalType": "string",
              "name": "uploadDate",
              "type": "string"
            }
          ],
          "internalType": "struct FileStorage.FileData[]",
          "name": "",
          "type": "tuple[]"
        }
      ],
      "stateMutability": "view",
      "type": "function",
      "constant": true
    },
    {
      "inputs": [],
      "name": "getAllFiles",
      "outputs": [
        {
          "components": [
            {
              "internalType": "string",
              "name": "cid",
              "type": "string"
            },
            {
              "internalType": "address",
              "name": "userAddress",
              "type": "address"
            },
            {
              "internalType": "address",
              "name": "authorAddress",
              "type": "address"
            },
            {
              "internalType": "string",
              "name": "fileName",
              "type": "string"
            },
            {
              "internalType": "string",
              "name": "uploadDate",
              "type": "string"
            }
          ],
          "internalType": "struct FileStorage.FileData[][]",
          "name": "",
          "type": "tuple[][]"
        }
      ],
      "stateMutability": "view",
      "type": "function",
      "constant": true
    },
    {
      "inputs": [],
      "name": "getNumberOfUsers",
      "outputs": [
        {
          "internalType": "uint256",
          "name": "",
          "type": "uint256"
        }
      ],
      "stateMutability": "view",
      "type": "function",
      "constant": true
    },
    {
      "inputs": [
        {
          "internalType": "uint256",
          "name": "index",
          "type": "uint256"
        }
      ],
      "name": "getUserAtIndex",
      "outputs": [
        {
          "internalType": "address",
          "name": "",
          "type": "address"
        }
      ],
      "stateMutability": "view",
      "type": "function",
      "constant": true
    }
  ],
  "bytecode": "0x6080604052348015600f57600080fd5b506118ec8061001f6000396000f3fe608060405234801561001057600080fd5b506004361061007d5760003560e01c8063718f38a61161005b578063718f38a614610100578063c0c9ee3f14610134578063ff24b5d514610150578063ffcc7bbf1461016e5761007d565b80631fc3792214610082578063365b98b2146100b25780634d009288146100e2575b600080fd5b61009c60048036038101906100979190610df2565b61019e565b6040516100a99190611004565b60405180910390f35b6100cc60048036038101906100c7919061105c565b61049d565b6040516100d99190611098565b60405180910390f35b6100ea6104dc565b6040516100f791906110c2565b60405180910390f35b61011a600480360381019061011591906110dd565b6104e9565b60405161012b959493929190611167565b60405180910390f35b61014e60048036038101906101499190611304565b610714565b005b610158610954565b604051610165919061151b565b60405180910390f35b6101886004803603810190610183919061105c565b610cf1565b6040516101959190611098565b60405180910390f35b60606000808373ffffffffffffffffffffffffffffffffffffffff1673ffffffffffffffffffffffffffffffffffffffff168152602001908152602001600020805480602002602001604051908101604052809291908181526020016000905b8282101561049257838290600052602060002090600502016040518060a00160405290816000820180546102319061156c565b80601f016020809104026020016040519081016040528092919081815260200182805461025d9061156c565b80156102aa5780601f1061027f576101008083540402835291602001916102aa565b820191906000526020600020905b81548152906001019060200180831161028d57829003601f168201915b505050505081526020016001820160009054906101000a900473ffffffffffffffffffffffffffffffffffffffff1673ffffffffffffffffffffffffffffffffffffffff1673ffffffffffffffffffffffffffffffffffffffff1681526020016002820160009054906101000a900473ffffffffffffffffffffffffffffffffffffffff1673ffffffffffffffffffffffffffffffffffffffff1673ffffffffffffffffffffffffffffffffffffffff16815260200160038201805461036f9061156c565b80601f016020809104026020016040519081016040528092919081815260200182805461039b9061156c565b80156103e85780601f106103bd576101008083540402835291602001916103e8565b820191906000526020600020905b8154815290600101906020018083116103cb57829003601f168201915b505050505081526020016004820180546104019061156c565b80601f016020809104026020016040519081016040528092919081815260200182805461042d9061156c565b801561047a5780601f1061044f5761010080835404028352916020019161047a565b820191906000526020600020905b81548152906001019060200180831161045d57829003601f168201915b505050505081525050815260200190600101906101fe565b505050509050919050565b600181815481106104ad57600080fd5b906000526020600020016000915054906101000a900473ffffffffffffffffffffffffffffffffffffffff1681565b6000600180549050905090565b6000602052816000526040600020818154811061050557600080fd5b9060005260206000209060050201600091509150508060000180546105299061156c565b80601f01602080910402602001604051908101604052809291908181526020018280546105559061156c565b80156105a25780601f10610577576101008083540402835291602001916105a2565b820191906000526020600020905b81548152906001019060200180831161058557829003601f168201915b5050505050908060010160009054906101000a900473ffffffffffffffffffffffffffffffffffffffff16908060020160009054906101000a900473ffffffffffffffffffffffffffffffffffffffff16908060030180546106039061156c565b80601f016020809104026020016040519081016040528092919081815260200182805461062f9061156c565b801561067c5780601f106106515761010080835404028352916020019161067c565b820191906000526020600020905b81548152906001019060200180831161065f57829003601f168201915b5050505050908060040180546106919061156c565b80601f01602080910402602001604051908101604052809291908181526020018280546106bd9061156c565b801561070a5780601f106106df5761010080835404028352916020019161070a565b820191906000526020600020905b8154815290600101906020018083116106ed57829003601f168201915b5050505050905085565b6000808573ffffffffffffffffffffffffffffffffffffffff1673ffffffffffffffffffffffffffffffffffffffff1681526020019081526020016000206040518060a001604052808781526020018673ffffffffffffffffffffffffffffffffffffffff1681526020018573ffffffffffffffffffffffffffffffffffffffff16815260200184815260200183815250908060018154018082558091505060019003906000526020600020906005020160009091909190915060008201518160000190816107e39190611749565b5060208201518160010160006101000a81548173ffffffffffffffffffffffffffffffffffffffff021916908373ffffffffffffffffffffffffffffffffffffffff16021790555060408201518160020160006101000a81548173ffffffffffffffffffffffffffffffffffffffff021916908373ffffffffffffffffffffffffffffffffffffffff16021790555060608201518160030190816108879190611749565b50608082015181600401908161089d9190611749565b50505060016000808673ffffffffffffffffffffffffffffffffffffffff1673ffffffffffffffffffffffffffffffffffffffff168152602001908152602001600020805490500361094d576001849080600181540180825580915050600190039060005260206000200160009091909190916101000a81548173ffffffffffffffffffffffffffffffffffffffff021916908373ffffffffffffffffffffffffffffffffffffffff1602179055505b5050505050565b606060006109606104dc565b905060008167ffffffffffffffff81111561097e5761097d6111d9565b5b6040519080825280602002602001820160405280156109b157816020015b606081526020019060019003908161099c5790505b50905060005b82811015610ce8576000806109cb83610cf1565b73ffffffffffffffffffffffffffffffffffffffff1673ffffffffffffffffffffffffffffffffffffffff168152602001908152602001600020805480602002602001604051908101604052809291908181526020016000905b82821015610cb957838290600052602060002090600502016040518060a0016040529081600082018054610a589061156c565b80601f0160208091040260200160405190810160405280929190818152602001828054610a849061156c565b8015610ad15780601f10610aa657610100808354040283529160200191610ad1565b820191906000526020600020905b815481529060010190602001808311610ab457829003601f168201915b505050505081526020016001820160009054906101000a900473ffffffffffffffffffffffffffffffffffffffff1673ffffffffffffffffffffffffffffffffffffffff1673ffffffffffffffffffffffffffffffffffffffff1681526020016002820160009054906101000a900473ffffffffffffffffffffffffffffffffffffffff1673ffffffffffffffffffffffffffffffffffffffff1673ffffffffffffffffffffffffffffffffffffffff168152602001600382018054610b969061156c565b80601f0160208091040260200160405190810160405280929190818152602001828054610bc29061156c565b8015610c0f5780601f10610be457610100808354040283529160200191610c0f565b820191906000526020600020905b815481529060010190602001808311610bf257829003601f168201915b50505050508152602001600482018054610c289061156c565b80601f0160208091040260200160405190810160405280929190818152602001828054610c549061156c565b8015610ca15780601f10610c7657610100808354040283529160200191610ca1565b820191906000526020600020905b815481529060010190602001808311610c8457829003601f168201915b50505050508152505081526020019060010190610a25565b50505050828281518110610cd057610ccf61181b565b5b602002602001018190525080806001019150506109b7565b50809250505090565b60006001805490508210610d3a576040517f08c379a0000000000000000000000000000000000000000000000000000000008152600401610d3190611896565b60405180910390fd5b60018281548110610d4e57610d4d61181b565b5b9060005260206000200160009054906101000a900473ffffffffffffffffffffffffffffffffffffffff169050919050565b6000604051905090565b600080fd5b600080fd5b600073ffffffffffffffffffffffffffffffffffffffff82169050919050565b6000610dbf82610d94565b9050919050565b610dcf81610db4565b8114610dda57600080fd5b50565b600081359050610dec81610dc6565b92915050565b600060208284031215610e0857610e07610d8a565b5b6000610e1684828501610ddd565b91505092915050565b600081519050919050565b600082825260208201905092915050565b6000819050602082019050919050565b600081519050919050565b600082825260208201905092915050565b60005b83811015610e85578082015181840152602081019050610e6a565b60008484015250505050565b6000601f19601f8301169050919050565b6000610ead82610e4b565b610eb78185610e56565b9350610ec7818560208601610e67565b610ed081610e91565b840191505092915050565b610ee481610db4565b82525050565b600060a0830160008301518482036000860152610f078282610ea2565b9150506020830151610f1c6020860182610edb565b506040830151610f2f6040860182610edb565b5060608301518482036060860152610f478282610ea2565b91505060808301518482036080860152610f618282610ea2565b9150508091505092915050565b6000610f7a8383610eea565b905092915050565b6000602082019050919050565b6000610f9a82610e1f565b610fa48185610e2a565b935083602082028501610fb685610e3b565b8060005b85811015610ff25784840389528151610fd38582610f6e565b9450610fde83610f82565b925060208a01995050600181019050610fba565b50829750879550505050505092915050565b6000602082019050818103600083015261101e8184610f8f565b905092915050565b6000819050919050565b61103981611026565b811461104457600080fd5b50565b60008135905061105681611030565b92915050565b60006020828403121561107257611071610d8a565b5b600061108084828501611047565b91505092915050565b61109281610db4565b82525050565b60006020820190506110ad6000830184611089565b92915050565b6110bc81611026565b82525050565b60006020820190506110d760008301846110b3565b92915050565b600080604083850312156110f4576110f3610d8a565b5b600061110285828601610ddd565b925050602061111385828601611047565b9150509250929050565b600082825260208201905092915050565b600061113982610e4b565b611143818561111d565b9350611153818560208601610e67565b61115c81610e91565b840191505092915050565b600060a0820190508181036000830152611181818861112e565b90506111906020830187611089565b61119d6040830186611089565b81810360608301526111af818561112e565b905081810360808301526111c3818461112e565b90509695505050505050565b600080fd5b600080fd5b7f4e487b7100000000000000000000000000000000000000000000000000000000600052604160045260246000fd5b61121182610e91565b810181811067ffffffffffffffff821117156112305761122f6111d9565b5b80604052505050565b6000611243610d80565b905061124f8282611208565b919050565b600067ffffffffffffffff82111561126f5761126e6111d9565b5b61127882610e91565b9050602081019050919050565b82818337600083830152505050565b60006112a76112a284611254565b611239565b9050828152602081018484840111156112c3576112c26111d4565b5b6112ce848285611285565b509392505050565b600082601f8301126112eb576112ea6111cf565b5b81356112fb848260208601611294565b91505092915050565b600080600080600060a086880312156113205761131f610d8a565b5b600086013567ffffffffffffffff81111561133e5761133d610d8f565b5b61134a888289016112d6565b955050602061135b88828901610ddd565b945050604061136c88828901610ddd565b935050606086013567ffffffffffffffff81111561138d5761138c610d8f565b5b611399888289016112d6565b925050608086013567ffffffffffffffff8111156113ba576113b9610d8f565b5b6113c6888289016112d6565b9150509295509295909350565b600081519050919050565b600082825260208201905092915050565b6000819050602082019050919050565b600082825260208201905092915050565b600061141b82610e1f565b61142581856113ff565b93508360208202850161143785610e3b565b8060005b8581101561147357848403895281516114548582610f6e565b945061145f83610f82565b925060208a0199505060018101905061143b565b50829750879550505050505092915050565b60006114918383611410565b905092915050565b6000602082019050919050565b60006114b1826113d3565b6114bb81856113de565b9350836020820285016114cd856113ef565b8060005b8581101561150957848403895281516114ea8582611485565b94506114f583611499565b925060208a019950506001810190506114d1565b50829750879550505050505092915050565b6000602082019050818103600083015261153581846114a6565b905092915050565b7f4e487b7100000000000000000000000000000000000000000000000000000000600052602260045260246000fd5b6000600282049050600182168061158457607f821691505b6020821081036115975761159661153d565b5b50919050565b60008190508160005260206000209050919050565b60006020601f8301049050919050565b600082821b905092915050565b6000600883026115ff7fffffffffffffffffffffffffffffffffffffffffffffffffffffffffffffffff826115c2565b61160986836115c2565b95508019841693508086168417925050509392505050565b6000819050919050565b600061164661164161163c84611026565b611621565b611026565b9050919050565b6000819050919050565b6116608361162b565b61167461166c8261164d565b8484546115cf565b825550505050565b600090565b61168961167c565b611694818484611657565b505050565b5b818110156116b8576116ad600082611681565b60018101905061169a565b5050565b601f8211156116fd576116ce8161159d565b6116d7846115b2565b810160208510156116e6578190505b6116fa6116f2856115b2565b830182611699565b50505b505050565b600082821c905092915050565b600061172060001984600802611702565b1980831691505092915050565b6000611739838361170f565b9150826002028217905092915050565b61175282610e4b565b67ffffffffffffffff81111561176b5761176a6111d9565b5b611775825461156c565b6117808282856116bc565b600060209050601f8311600181146117b357600084156117a1578287015190505b6117ab858261172d565b865550611813565b601f1984166117c18661159d565b60005b828110156117e9578489015182556001820191506020850194506020810190506117c4565b868310156118065784890151611802601f89168261170f565b8355505b6001600288020188555050505b505050505050565b7f4e487b7100000000000000000000000000000000000000000000000000000000600052603260045260246000fd5b7f496e646578206f7574206f6620626f756e647300000000000000000000000000600082015250565b600061188060138361111d565b915061188b8261184a565b602082019050919050565b600060208201905081810360008301526118af81611873565b905091905056fea2646970667358221220b9c49a364ba3063c793ae813dbb726f260dcc938666361071a8ca555e11e7ba664736f6c63430008190033",
  "immutableReferences": {},
  "source": "// SPDX-License-Identifier: MIT \npragma solidity ^0.8.0;\n\ncontract FileStorage {\n    struct FileData {\n        string cid;\n        address userAddress;\n        address authorAddress;\n        string fileName;\n        string uploadDate;\n    }\n\n    mapping(address => FileData[]) public userFiles;\n    address[] public users; // Array to store user addresses\n\n    function storeCIDAndUserAddress(string memory cid, address userAddress, address authorAddress, string memory fileName, string memory uploadDate) public {\n        userFiles[userAddress].push(FileData(cid, userAddress, authorAddress, fileName, uploadDate));\n        if (userFiles[userAddress].length == 1) {\n            users.push(userAddress); // Add user address to the array if it's the first file for that user\n        }\n    }\n\n    function getUserFiles(address userAddress) public view returns (FileData[] memory) {\n        return userFiles[userAddress];\n    }\n\n    function getAllFiles() public view returns (FileData[][] memory) {\n        uint256 totalUsers = getNumberOfUsers();\n        FileData[][] memory allFiles = new FileData[][](totalUsers);\n\n        for (uint256 i = 0; i < totalUsers; i++) {\n            allFiles[i] = userFiles[getUserAtIndex(i)];\n        }\n\n        return allFiles;\n    }\n\n    function getNumberOfUsers() public view returns (uint256) {\n        return users.length; // Return the length of the users array\n    }\n\n    function getUserAtIndex(uint256 index) public view returns (address) {\n        require(index < users.length, \"Index out of bounds\"); // Ensure index is within bounds\n        return users[index];\n    }\n}",
  "sourcePath": "/Users/patrik/bc/frontend/company-chain/smart-contracts/contracts/FileStorage.sol",
  "compiler": {
    "name": "solc",
    "version": "0.8.25+commit.b61c2a91.Emscripten.clang"
  },
  "schemaVersion": "3.4.16",
  "updatedAt": "2024-05-01T18:23:21.705Z",
  "networkType": "ethereum",
  "devdoc": {
    "kind": "dev",
    "methods": {},
    "version": 1
  },
  "userdoc": {
    "kind": "user",
    "methods": {},
    "version": 1
  }
}