{
  "contractName": "UserAccessControl",
  "abi": [
    {
      "inputs": [],
      "stateMutability": "nonpayable",
      "type": "constructor"
    },
    {
      "inputs": [],
      "name": "AccessControlBadConfirmation",
      "type": "error"
    },
    {
      "inputs": [
        {
          "internalType": "address",
          "name": "account",
          "type": "address"
        },
        {
          "internalType": "bytes32",
          "name": "neededRole",
          "type": "bytes32"
        }
      ],
      "name": "AccessControlUnauthorizedAccount",
      "type": "error"
    },
    {
      "inputs": [
        {
          "internalType": "address",
          "name": "owner",
          "type": "address"
        }
      ],
      "name": "OwnableInvalidOwner",
      "type": "error"
    },
    {
      "inputs": [
        {
          "internalType": "address",
          "name": "account",
          "type": "address"
        }
      ],
      "name": "OwnableUnauthorizedAccount",
      "type": "error"
    },
    {
      "anonymous": false,
      "inputs": [
        {
          "indexed": true,
          "internalType": "address",
          "name": "previousOwner",
          "type": "address"
        },
        {
          "indexed": true,
          "internalType": "address",
          "name": "newOwner",
          "type": "address"
        }
      ],
      "name": "OwnershipTransferred",
      "type": "event"
    },
    {
      "anonymous": false,
      "inputs": [
        {
          "indexed": true,
          "internalType": "bytes32",
          "name": "role",
          "type": "bytes32"
        },
        {
          "indexed": true,
          "internalType": "bytes32",
          "name": "previousAdminRole",
          "type": "bytes32"
        },
        {
          "indexed": true,
          "internalType": "bytes32",
          "name": "newAdminRole",
          "type": "bytes32"
        }
      ],
      "name": "RoleAdminChanged",
      "type": "event"
    },
    {
      "anonymous": false,
      "inputs": [
        {
          "indexed": true,
          "internalType": "bytes32",
          "name": "role",
          "type": "bytes32"
        },
        {
          "indexed": true,
          "internalType": "address",
          "name": "account",
          "type": "address"
        },
        {
          "indexed": true,
          "internalType": "address",
          "name": "sender",
          "type": "address"
        }
      ],
      "name": "RoleGranted",
      "type": "event"
    },
    {
      "anonymous": false,
      "inputs": [
        {
          "indexed": true,
          "internalType": "bytes32",
          "name": "role",
          "type": "bytes32"
        },
        {
          "indexed": true,
          "internalType": "address",
          "name": "account",
          "type": "address"
        },
        {
          "indexed": true,
          "internalType": "address",
          "name": "sender",
          "type": "address"
        }
      ],
      "name": "RoleRevoked",
      "type": "event"
    },
    {
      "inputs": [],
      "name": "DEFAULT_ADMIN_ROLE",
      "outputs": [
        {
          "internalType": "bytes32",
          "name": "",
          "type": "bytes32"
        }
      ],
      "stateMutability": "view",
      "type": "function",
      "constant": true
    },
    {
      "inputs": [],
      "name": "MINTER_ROLE",
      "outputs": [
        {
          "internalType": "bytes32",
          "name": "",
          "type": "bytes32"
        }
      ],
      "stateMutability": "view",
      "type": "function",
      "constant": true
    },
    {
      "inputs": [
        {
          "internalType": "bytes32",
          "name": "role",
          "type": "bytes32"
        }
      ],
      "name": "getRoleAdmin",
      "outputs": [
        {
          "internalType": "bytes32",
          "name": "",
          "type": "bytes32"
        }
      ],
      "stateMutability": "view",
      "type": "function",
      "constant": true
    },
    {
      "inputs": [
        {
          "internalType": "bytes32",
          "name": "role",
          "type": "bytes32"
        },
        {
          "internalType": "address",
          "name": "account",
          "type": "address"
        }
      ],
      "name": "grantRole",
      "outputs": [],
      "stateMutability": "nonpayable",
      "type": "function"
    },
    {
      "inputs": [
        {
          "internalType": "bytes32",
          "name": "role",
          "type": "bytes32"
        },
        {
          "internalType": "address",
          "name": "account",
          "type": "address"
        }
      ],
      "name": "hasRole",
      "outputs": [
        {
          "internalType": "bool",
          "name": "",
          "type": "bool"
        }
      ],
      "stateMutability": "view",
      "type": "function",
      "constant": true
    },
    {
      "inputs": [],
      "name": "owner",
      "outputs": [
        {
          "internalType": "address",
          "name": "",
          "type": "address"
        }
      ],
      "stateMutability": "view",
      "type": "function",
      "constant": true
    },
    {
      "inputs": [],
      "name": "renounceOwnership",
      "outputs": [],
      "stateMutability": "nonpayable",
      "type": "function"
    },
    {
      "inputs": [
        {
          "internalType": "bytes32",
          "name": "role",
          "type": "bytes32"
        },
        {
          "internalType": "address",
          "name": "callerConfirmation",
          "type": "address"
        }
      ],
      "name": "renounceRole",
      "outputs": [],
      "stateMutability": "nonpayable",
      "type": "function"
    },
    {
      "inputs": [
        {
          "internalType": "bytes32",
          "name": "role",
          "type": "bytes32"
        },
        {
          "internalType": "address",
          "name": "account",
          "type": "address"
        }
      ],
      "name": "revokeRole",
      "outputs": [],
      "stateMutability": "nonpayable",
      "type": "function"
    },
    {
      "inputs": [
        {
          "internalType": "bytes4",
          "name": "interfaceId",
          "type": "bytes4"
        }
      ],
      "name": "supportsInterface",
      "outputs": [
        {
          "internalType": "bool",
          "name": "",
          "type": "bool"
        }
      ],
      "stateMutability": "view",
      "type": "function",
      "constant": true
    },
    {
      "inputs": [
        {
          "internalType": "address",
          "name": "newOwner",
          "type": "address"
        }
      ],
      "name": "transferOwnership",
      "outputs": [],
      "stateMutability": "nonpayable",
      "type": "function"
    },
    {
      "inputs": [
        {
          "internalType": "address",
          "name": "user",
          "type": "address"
        }
      ],
      "name": "grantMinterRole",
      "outputs": [],
      "stateMutability": "nonpayable",
      "type": "function"
    },
    {
      "inputs": [
        {
          "internalType": "address",
          "name": "user",
          "type": "address"
        }
      ],
      "name": "rovokeMinterRole",
      "outputs": [],
      "stateMutability": "nonpayable",
      "type": "function"
    },
    {
      "inputs": [],
      "name": "isMinter",
      "outputs": [
        {
          "internalType": "bool",
          "name": "canActivate",
          "type": "bool"
        }
      ],
      "stateMutability": "view",
      "type": "function",
      "constant": true
    },
    {
      "inputs": [],
      "name": "getOwner",
      "outputs": [
        {
          "internalType": "address",
          "name": "",
          "type": "address"
        }
      ],
      "stateMutability": "view",
      "type": "function",
      "constant": true
    }
  ],
  "bytecode": "0x608060405234801561001057600080fd5b5033600073ffffffffffffffffffffffffffffffffffffffff168173ffffffffffffffffffffffffffffffffffffffff16036100845760006040517f1e4fbdf700000000000000000000000000000000000000000000000000000000815260040161007b9190610353565b60405180910390fd5b610093816100de60201b60201c565b506100a76000801b336101a260201b60201c565b506100d87f9f2df0fed2c77648de5860a4cc508cd0818c85b8b8a1ab4ceeef8d981c8956a6336101a260201b60201c565b5061036e565b60008060009054906101000a900473ffffffffffffffffffffffffffffffffffffffff169050816000806101000a81548173ffffffffffffffffffffffffffffffffffffffff021916908373ffffffffffffffffffffffffffffffffffffffff1602179055508173ffffffffffffffffffffffffffffffffffffffff168173ffffffffffffffffffffffffffffffffffffffff167f8be0079c531659141344cd1fd0a4f28419497f9722a3daafe3b4186f6b6457e060405160405180910390a35050565b60006101b4838361029f60201b60201c565b61029457600180600085815260200190815260200160002060000160008473ffffffffffffffffffffffffffffffffffffffff1673ffffffffffffffffffffffffffffffffffffffff16815260200190815260200160002060006101000a81548160ff02191690831515021790555061023161030a60201b60201c565b73ffffffffffffffffffffffffffffffffffffffff168273ffffffffffffffffffffffffffffffffffffffff16847f2f8788117e7eff1d82e926ec794901d17c78024a50270940304540a733656f0d60405160405180910390a460019050610299565b600090505b92915050565b60006001600084815260200190815260200160002060000160008373ffffffffffffffffffffffffffffffffffffffff1673ffffffffffffffffffffffffffffffffffffffff16815260200190815260200160002060009054906101000a900460ff16905092915050565b600033905090565b600073ffffffffffffffffffffffffffffffffffffffff82169050919050565b600061033d82610312565b9050919050565b61034d81610332565b82525050565b60006020820190506103686000830184610344565b92915050565b610db98061037d6000396000f3fe608060405234801561001057600080fd5b50600436106100f55760003560e01c8063715018a611610097578063a217fddf11610066578063a217fddf1461025e578063d53913931461027c578063d547741f1461029a578063f2fde38b146102b6576100f5565b8063715018a6146101e8578063893d20e8146101f25780638da5cb5b1461021057806391d148541461022e576100f5565b80632f2ff15d116100d35780632f2ff15d1461017657806336568abe146101925780633dd1eb61146101ae57806350e59eb3146101ca576100f5565b806301ffc9a7146100fa57806304f00d3c1461012a578063248a9ca314610146575b600080fd5b610114600480360381019061010f9190610ad2565b6102d2565b6040516101219190610b1a565b60405180910390f35b610144600480360381019061013f9190610b93565b61034c565b005b610160600480360381019061015b9190610bf6565b610381565b60405161016d9190610c32565b60405180910390f35b610190600480360381019061018b9190610c4d565b6103a1565b005b6101ac60048036038101906101a79190610c4d565b6103c3565b005b6101c860048036038101906101c39190610b93565b61043e565b005b6101d2610473565b6040516101df9190610b1a565b60405180910390f35b6101f06104e5565b005b6101fa6104f9565b6040516102079190610c9c565b60405180910390f35b610218610508565b6040516102259190610c9c565b60405180910390f35b61024860048036038101906102439190610c4d565b610531565b6040516102559190610b1a565b60405180910390f35b61026661059c565b6040516102739190610c32565b60405180910390f35b6102846105a3565b6040516102919190610c32565b60405180910390f35b6102b460048036038101906102af9190610c4d565b6105c7565b005b6102d060048036038101906102cb9190610b93565b6105e9565b005b60007f7965db0b000000000000000000000000000000000000000000000000000000007bffffffffffffffffffffffffffffffffffffffffffffffffffffffff1916827bffffffffffffffffffffffffffffffffffffffffffffffffffffffff1916148061034557506103448261066f565b5b9050919050565b6103546106d9565b61037e7f9f2df0fed2c77648de5860a4cc508cd0818c85b8b8a1ab4ceeef8d981c8956a6826105c7565b50565b600060016000838152602001908152602001600020600101549050919050565b6103aa82610381565b6103b381610760565b6103bd8383610774565b50505050565b6103cb610865565b73ffffffffffffffffffffffffffffffffffffffff168173ffffffffffffffffffffffffffffffffffffffff161461042f576040517f6697b23200000000000000000000000000000000000000000000000000000000815260040160405180910390fd5b610439828261086d565b505050565b6104466106d9565b6104707f9f2df0fed2c77648de5860a4cc508cd0818c85b8b8a1ab4ceeef8d981c8956a6826103a1565b50565b600061049f7f9f2df0fed2c77648de5860a4cc508cd0818c85b8b8a1ab4ceeef8d981c8956a633610531565b6104de576040517f08c379a00000000000000000000000000000000000000000000000000000000081526004016104d590610d3a565b60405180910390fd5b6001905090565b6104ed6106d9565b6104f76000610960565b565b6000610503610508565b905090565b60008060009054906101000a900473ffffffffffffffffffffffffffffffffffffffff16905090565b60006001600084815260200190815260200160002060000160008373ffffffffffffffffffffffffffffffffffffffff1673ffffffffffffffffffffffffffffffffffffffff16815260200190815260200160002060009054906101000a900460ff16905092915050565b6000801b81565b7f9f2df0fed2c77648de5860a4cc508cd0818c85b8b8a1ab4ceeef8d981c8956a681565b6105d082610381565b6105d981610760565b6105e3838361086d565b50505050565b6105f16106d9565b600073ffffffffffffffffffffffffffffffffffffffff168173ffffffffffffffffffffffffffffffffffffffff16036106635760006040517f1e4fbdf700000000000000000000000000000000000000000000000000000000815260040161065a9190610c9c565b60405180910390fd5b61066c81610960565b50565b60007f01ffc9a7000000000000000000000000000000000000000000000000000000007bffffffffffffffffffffffffffffffffffffffffffffffffffffffff1916827bffffffffffffffffffffffffffffffffffffffffffffffffffffffff1916149050919050565b6106e1610865565b73ffffffffffffffffffffffffffffffffffffffff166106ff610508565b73ffffffffffffffffffffffffffffffffffffffff161461075e57610722610865565b6040517f118cdaa70000000000000000000000000000000000000000000000000000000081526004016107559190610c9c565b60405180910390fd5b565b6107718161076c610865565b610a24565b50565b60006107808383610531565b61085a57600180600085815260200190815260200160002060000160008473ffffffffffffffffffffffffffffffffffffffff1673ffffffffffffffffffffffffffffffffffffffff16815260200190815260200160002060006101000a81548160ff0219169083151502179055506107f7610865565b73ffffffffffffffffffffffffffffffffffffffff168273ffffffffffffffffffffffffffffffffffffffff16847f2f8788117e7eff1d82e926ec794901d17c78024a50270940304540a733656f0d60405160405180910390a46001905061085f565b600090505b92915050565b600033905090565b60006108798383610531565b156109555760006001600085815260200190815260200160002060000160008473ffffffffffffffffffffffffffffffffffffffff1673ffffffffffffffffffffffffffffffffffffffff16815260200190815260200160002060006101000a81548160ff0219169083151502179055506108f2610865565b73ffffffffffffffffffffffffffffffffffffffff168273ffffffffffffffffffffffffffffffffffffffff16847ff6391f5c32d9c69d2a47ea670b442974b53935d1edc7fd64eb21e047a839171b60405160405180910390a46001905061095a565b600090505b92915050565b60008060009054906101000a900473ffffffffffffffffffffffffffffffffffffffff169050816000806101000a81548173ffffffffffffffffffffffffffffffffffffffff021916908373ffffffffffffffffffffffffffffffffffffffff1602179055508173ffffffffffffffffffffffffffffffffffffffff168173ffffffffffffffffffffffffffffffffffffffff167f8be0079c531659141344cd1fd0a4f28419497f9722a3daafe3b4186f6b6457e060405160405180910390a35050565b610a2e8282610531565b610a715780826040517fe2517d3f000000000000000000000000000000000000000000000000000000008152600401610a68929190610d5a565b60405180910390fd5b5050565b600080fd5b60007fffffffff0000000000000000000000000000000000000000000000000000000082169050919050565b610aaf81610a7a565b8114610aba57600080fd5b50565b600081359050610acc81610aa6565b92915050565b600060208284031215610ae857610ae7610a75565b5b6000610af684828501610abd565b91505092915050565b60008115159050919050565b610b1481610aff565b82525050565b6000602082019050610b2f6000830184610b0b565b92915050565b600073ffffffffffffffffffffffffffffffffffffffff82169050919050565b6000610b6082610b35565b9050919050565b610b7081610b55565b8114610b7b57600080fd5b50565b600081359050610b8d81610b67565b92915050565b600060208284031215610ba957610ba8610a75565b5b6000610bb784828501610b7e565b91505092915050565b6000819050919050565b610bd381610bc0565b8114610bde57600080fd5b50565b600081359050610bf081610bca565b92915050565b600060208284031215610c0c57610c0b610a75565b5b6000610c1a84828501610be1565b91505092915050565b610c2c81610bc0565b82525050565b6000602082019050610c476000830184610c23565b92915050565b60008060408385031215610c6457610c63610a75565b5b6000610c7285828601610be1565b9250506020610c8385828601610b7e565b9150509250929050565b610c9681610b55565b82525050565b6000602082019050610cb16000830184610c8d565b92915050565b600082825260208201905092915050565b7f53686f756c642068617665204d494e5445525f524f4c4520746f2063616c6c2060008201527f746869732066756e6374696f6e00000000000000000000000000000000000000602082015250565b6000610d24602d83610cb7565b9150610d2f82610cc8565b604082019050919050565b60006020820190508181036000830152610d5381610d17565b9050919050565b6000604082019050610d6f6000830185610c8d565b610d7c6020830184610c23565b939250505056fea264697066735822122088cba3192b0b13fd2713251a258d45a9d1d61d52879fa3d7343b4493e435549464736f6c63430008190033",
  "immutableReferences": {},
  "source": "// SPDX-License-Identifier: MIT\npragma solidity 0.8.25;\n\nimport \"@openzeppelin/contracts/access/Ownable.sol\";\nimport \"@openzeppelin/contracts/access/AccessControl.sol\";\n\ncontract UserAccessControl is Ownable, AccessControl {\n    bytes32 public constant MINTER_ROLE = keccak256(\"MINTER_ROLE\");\n\n    /**\n     * @dev Grants `DEFAULT_ADMIN_ROLE` to the account that deploys the contract.\n     * Grants `MINTER_ROLE` to the account that deploys the contract.\n     */\n    constructor() Ownable(msg.sender) {\n        _grantRole(DEFAULT_ADMIN_ROLE, msg.sender);\n        _grantRole(MINTER_ROLE, msg.sender);\n    }\n\n    /**\n     * @dev Grants `MINTER_ROLE` to the specified user.\n     * Can only be called by the contract owner.\n     */\n    function grantMinterRole(address user) public onlyOwner {\n        grantRole(MINTER_ROLE, user);\n    }\n\n    /**\n     * @dev Revokes `MINTER_ROLE` from the specified user.\n     * Can only be called by the contract owner.\n     */\n    function rovokeMinterRole(address user) public onlyOwner {\n        revokeRole(MINTER_ROLE, user);\n    }\n\n    /**\n     * @dev Test wheter use has a `MINTER_ROLE`.\n     */\n    function isMinter() public view returns(bool canActivate) {\n            require(\n                hasRole(MINTER_ROLE, msg.sender),\n                \"Should have MINTER_ROLE to call this function\"\n        );\n        return true;\n    }\n    \n    /**\n    * @dev Get owner\n    */\n    function getOwner() public view returns(address) {\n       return owner();\n    }\n}\n",
  "sourcePath": "/Users/patrik/bc/frontend/company-chain/smart-contracts/contracts/UserAccessControl.sol",
  "compiler": {
    "name": "solc",
    "version": "0.8.25+commit.b61c2a91.Emscripten.clang"
  },
  "schemaVersion": "3.4.16",
  "updatedAt": "2024-04-29T19:08:33.571Z",
  "networkType": "ethereum",
  "devdoc": {
    "errors": {
      "AccessControlBadConfirmation()": [
        {
          "details": "The caller of a function is not the expected one. NOTE: Don't confuse with {AccessControlUnauthorizedAccount}."
        }
      ],
      "AccessControlUnauthorizedAccount(address,bytes32)": [
        {
          "details": "The `account` is missing a role."
        }
      ],
      "OwnableInvalidOwner(address)": [
        {
          "details": "The owner is not a valid owner account. (eg. `address(0)`)"
        }
      ],
      "OwnableUnauthorizedAccount(address)": [
        {
          "details": "The caller account is not authorized to perform an operation."
        }
      ]
    },
    "events": {
      "RoleAdminChanged(bytes32,bytes32,bytes32)": {
        "details": "Emitted when `newAdminRole` is set as ``role``'s admin role, replacing `previousAdminRole` `DEFAULT_ADMIN_ROLE` is the starting admin for all roles, despite {RoleAdminChanged} not being emitted signaling this."
      },
      "RoleGranted(bytes32,address,address)": {
        "details": "Emitted when `account` is granted `role`. `sender` is the account that originated the contract call, an admin role bearer except when using {AccessControl-_setupRole}."
      },
      "RoleRevoked(bytes32,address,address)": {
        "details": "Emitted when `account` is revoked `role`. `sender` is the account that originated the contract call:   - if using `revokeRole`, it is the admin role bearer   - if using `renounceRole`, it is the role bearer (i.e. `account`)"
      }
    },
    "kind": "dev",
    "methods": {
      "constructor": {
        "details": "Grants `DEFAULT_ADMIN_ROLE` to the account that deploys the contract. Grants `MINTER_ROLE` to the account that deploys the contract."
      },
      "getOwner()": {
        "details": "Get owner"
      },
      "getRoleAdmin(bytes32)": {
        "details": "Returns the admin role that controls `role`. See {grantRole} and {revokeRole}. To change a role's admin, use {_setRoleAdmin}."
      },
      "grantMinterRole(address)": {
        "details": "Grants `MINTER_ROLE` to the specified user. Can only be called by the contract owner."
      },
      "grantRole(bytes32,address)": {
        "details": "Grants `role` to `account`. If `account` had not been already granted `role`, emits a {RoleGranted} event. Requirements: - the caller must have ``role``'s admin role. May emit a {RoleGranted} event."
      },
      "hasRole(bytes32,address)": {
        "details": "Returns `true` if `account` has been granted `role`."
      },
      "isMinter()": {
        "details": "Test wheter use has a `MINTER_ROLE`."
      },
      "owner()": {
        "details": "Returns the address of the current owner."
      },
      "renounceOwnership()": {
        "details": "Leaves the contract without owner. It will not be possible to call `onlyOwner` functions. Can only be called by the current owner. NOTE: Renouncing ownership will leave the contract without an owner, thereby disabling any functionality that is only available to the owner."
      },
      "renounceRole(bytes32,address)": {
        "details": "Revokes `role` from the calling account. Roles are often managed via {grantRole} and {revokeRole}: this function's purpose is to provide a mechanism for accounts to lose their privileges if they are compromised (such as when a trusted device is misplaced). If the calling account had been revoked `role`, emits a {RoleRevoked} event. Requirements: - the caller must be `callerConfirmation`. May emit a {RoleRevoked} event."
      },
      "revokeRole(bytes32,address)": {
        "details": "Revokes `role` from `account`. If `account` had been granted `role`, emits a {RoleRevoked} event. Requirements: - the caller must have ``role``'s admin role. May emit a {RoleRevoked} event."
      },
      "rovokeMinterRole(address)": {
        "details": "Revokes `MINTER_ROLE` from the specified user. Can only be called by the contract owner."
      },
      "supportsInterface(bytes4)": {
        "details": "See {IERC165-supportsInterface}."
      },
      "transferOwnership(address)": {
        "details": "Transfers ownership of the contract to a new account (`newOwner`). Can only be called by the current owner."
      }
    },
    "version": 1
  },
  "userdoc": {
    "kind": "user",
    "methods": {},
    "version": 1
  }
}