{"contracts/Table.sol":{"Table":{"abi":[{"inputs":[{"internalType":"uint256","name":"chainid","type":"uint256"}],"name":"ChainNotSupported","type":"error"},{"inputs":[],"name":"createTable","outputs":[],"stateMutability":"payable","type":"function"},{"inputs":[{"internalType":"uint256","name":"id","type":"uint256"}],"name":"deleteFromTable","outputs":[],"stateMutability":"nonpayable","type":"function"},{"inputs":[],"name":"getTableId","outputs":[{"internalType":"uint256","name":"","type":"uint256"}],"stateMutability":"view","type":"function"},{"inputs":[],"name":"getTableName","outputs":[{"internalType":"string","name":"","type":"string"}],"stateMutability":"view","type":"function"},{"inputs":[{"internalType":"uint256","name":"id","type":"uint256"},{"internalType":"string","name":"val","type":"string"}],"name":"insertIntoTable","outputs":[],"stateMutability":"nonpayable","type":"function"},{"inputs":[{"internalType":"address","name":"","type":"address"},{"internalType":"address","name":"","type":"address"},{"internalType":"uint256","name":"","type":"uint256"},{"internalType":"bytes","name":"","type":"bytes"}],"name":"onERC721Received","outputs":[{"internalType":"bytes4","name":"","type":"bytes4"}],"stateMutability":"nonpayable","type":"function"},{"inputs":[{"internalType":"address","name":"controller","type":"address"}],"name":"setAccessControl","outputs":[],"stateMutability":"nonpayable","type":"function"},{"inputs":[{"internalType":"uint256","name":"id","type":"uint256"},{"internalType":"string","name":"val","type":"string"}],"name":"updateTable","outputs":[],"stateMutability":"nonpayable","type":"function"}],"evm":{"bytecode":{"linkReferences":{},"object":"608060405234801561001057600080fd5b50611906806100206000396000f3fe60806040526004361061007b5760003560e01c80635d5a33a21161004e5780635d5a33a21461013857806388e4f1cb14610163578063b2a4c8971461018e578063f56ec1ed146101985761007b565b806304bfc47f14610080578063150b7a02146100a957806319129e5a146100e6578063312fa4571461010f575b600080fd5b34801561008c57600080fd5b506100a760048036038101906100a29190610cca565b6101c1565b005b3480156100b557600080fd5b506100d060048036038101906100cb9190610e9b565b6102aa565b6040516100dd9190610f59565b60405180910390f35b3480156100f257600080fd5b5061010d60048036038101906101089190610f74565b6102be565b005b34801561011b57600080fd5b5061013660048036038101906101319190611042565b610339565b005b34801561014457600080fd5b5061014d610451565b60405161015a919061111d565b60405180910390f35b34801561016f57600080fd5b50610178610499565b604051610185919061114e565b60405180910390f35b6101966104a2565b005b3480156101a457600080fd5b506101bf60048036038101906101ba9190611042565b6105a2565b005b60006101cc826106c6565b6040516020016101dc91906111cb565b60405160208183030381529060405290506101f5610794565b73ffffffffffffffffffffffffffffffffffffffff1663377af0da306000546102566040518060400160405280600881526020017f6d795f7461626c6500000000000000000000000000000000000000000000000081525060005487610994565b6040518463ffffffff1660e01b815260040161027493929190611200565b600060405180830381600087803b15801561028e57600080fd5b505af11580156102a2573d6000803e3d6000fd5b505050505050565b600063150b7a0260e01b9050949350505050565b6102c6610794565b73ffffffffffffffffffffffffffffffffffffffff16638bb0ab9730600054846040518463ffffffff1660e01b81526004016103049392919061123e565b600060405180830381600087803b15801561031e57600080fd5b505af1158015610332573d6000803e3d6000fd5b5050505050565b6000610344826109d0565b604051602001610354919061129b565b60405160208183030381529060405290506000610370846106c6565b60405160200161038091906111cb565b6040516020818303038152906040529050610399610794565b73ffffffffffffffffffffffffffffffffffffffff1663377af0da306000546103fb6040518060400160405280600881526020017f6d795f7461626c6500000000000000000000000000000000000000000000000081525060005488886109f9565b6040518463ffffffff1660e01b815260040161041993929190611200565b600060405180830381600087803b15801561043357600080fd5b505af1158015610447573d6000803e3d6000fd5b5050505050505050565b60606104946040518060400160405280600881526020017f6d795f7461626c65000000000000000000000000000000000000000000000000815250600054610a7a565b905090565b60008054905090565b6104aa610794565b73ffffffffffffffffffffffffffffffffffffffff1663a15ab08d3061053a6040518060400160405280601f81526020017f696420696e7465676572207072696d617279206b65792c76616c2074657874008152506040518060400160405280600881526020017f6d795f7461626c65000000000000000000000000000000000000000000000000815250610ab8565b6040518363ffffffff1660e01b81526004016105579291906112c1565b6020604051808303816000875af1158015610576573d6000803e3d6000fd5b505050506040513d601f19601f8201168201806040525081019061059a9190611306565b600081905550565b6105aa610794565b73ffffffffffffffffffffffffffffffffffffffff1663377af0da306000546106726040518060400160405280600881526020017f6d795f7461626c650000000000000000000000000000000000000000000000008152506000546040518060400160405280600681526020017f69642c76616c00000000000000000000000000000000000000000000000000008152506106448a6106c6565b61064d8a6109d0565b60405160200161065e929190611359565b604051602081830303815290604052610aee565b6040518463ffffffff1660e01b815260040161069093929190611200565b600060405180830381600087803b1580156106aa57600080fd5b505af11580156106be573d6000803e3d6000fd5b505050505050565b6060600060016106d584610b2d565b01905060008167ffffffffffffffff8111156106f4576106f3610d70565b5b6040519080825280601f01601f1916602001820160405280156107265781602001600182028036833780820191505090505b509050600082602001820190505b600115610789578080600190039150507f3031323334353637383961626364656600000000000000000000000000000000600a86061a8153600a858161077d5761077c61138c565b5b04945060008503610734575b819350505050919050565b6000600146036107ba5773012969f7e3439a9b04025b5a049eb9bad82a8c129050610991565b600a46036107de5773fad44bf5b843de943a09d4f3e84949a11d3aa3e69050610991565b61a4b1460361080357739abd75e8640871a5a20d3b4ee6330a04c962affd9050610991565b61a4ba460361082857731a22854c5b1642760a827f20137a67930ae108d29050610991565b6089460361084c57735c4e6a9e5c1e1bf445a062006faf19ea6c49afea9050610991565b61013a4603610871577359ef8bf2d6c102b4c42aef9189e1a9f0abfd652d9050610991565b62aa36a746036108975773c50c62498448acc8dbde43da77f8d5d2e2c7597d9050610991565b62aa37dc46036108bd577368a2f4423ad3bf5139db563cf3bc80aa09ed70799050610991565b62066eee46036108e35773223a74b8323914afdc3ff1e5005564dc17231d6e9050610991565b62013881460361090957734b48841d4b32c4650e4abc117a03fe8b51f38f689050610991565b6204cb2f460361092f5773030bcf3d50cad04c2e57391b12740982a93086219050610991565b617a6946036109545773e7f1725e7734ce288f8367e1bb143e90bb3f05129050610991565b466040517f264e42cf000000000000000000000000000000000000000000000000000000008152600401610988919061114e565b60405180910390fd5b90565b606060006109a28585610a7a565b905080836040516020016109b7929190611453565b6040516020818303038152906040529150509392505050565b6060816040516020016109e391906114d9565b6040516020818303038152906040529050919050565b60606000610a078686610a7a565b90506000604051806020016040528060008152509050600084511115610a4a5783604051602001610a389190611506565b60405160208183030381529060405290505b818582604051602001610a5f939291906115c0565b60405160208183030381529060405292505050949350505050565b606082610a86466106c6565b610a8f846106c6565b604051602001610aa193929190611653565b604051602081830303815290604052905092915050565b606081610ac4466106c6565b84604051602001610ad79392919061177e565b604051602081830303815290604052905092915050565b60606000610afc8686610a7a565b9050808484604051602001610b1393929190611873565b604051602081830303815290604052915050949350505050565b600080600090507a184f03e93ff9f4daa797ed6e38ed64bf6a1f0100000000000000008310610b8b577a184f03e93ff9f4daa797ed6e38ed64bf6a1f0100000000000000008381610b8157610b8061138c565b5b0492506040810190505b6d04ee2d6d415b85acef81000000008310610bc8576d04ee2d6d415b85acef81000000008381610bbe57610bbd61138c565b5b0492506020810190505b662386f26fc100008310610bf757662386f26fc100008381610bed57610bec61138c565b5b0492506010810190505b6305f5e1008310610c20576305f5e1008381610c1657610c1561138c565b5b0492506008810190505b6127108310610c45576127108381610c3b57610c3a61138c565b5b0492506004810190505b60648310610c685760648381610c5e57610c5d61138c565b5b0492506002810190505b600a8310610c77576001810190505b80915050919050565b6000604051905090565b600080fd5b600080fd5b6000819050919050565b610ca781610c94565b8114610cb257600080fd5b50565b600081359050610cc481610c9e565b92915050565b600060208284031215610ce057610cdf610c8a565b5b6000610cee84828501610cb5565b91505092915050565b600073ffffffffffffffffffffffffffffffffffffffff82169050919050565b6000610d2282610cf7565b9050919050565b610d3281610d17565b8114610d3d57600080fd5b50565b600081359050610d4f81610d29565b92915050565b600080fd5b600080fd5b6000601f19601f8301169050919050565b7f4e487b7100000000000000000000000000000000000000000000000000000000600052604160045260246000fd5b610da882610d5f565b810181811067ffffffffffffffff82111715610dc757610dc6610d70565b5b80604052505050565b6000610dda610c80565b9050610de68282610d9f565b919050565b600067ffffffffffffffff821115610e0657610e05610d70565b5b610e0f82610d5f565b9050602081019050919050565b82818337600083830152505050565b6000610e3e610e3984610deb565b610dd0565b905082815260208101848484011115610e5a57610e59610d5a565b5b610e65848285610e1c565b509392505050565b600082601f830112610e8257610e81610d55565b5b8135610e92848260208601610e2b565b91505092915050565b60008060008060808587031215610eb557610eb4610c8a565b5b6000610ec387828801610d40565b9450506020610ed487828801610d40565b9350506040610ee587828801610cb5565b925050606085013567ffffffffffffffff811115610f0657610f05610c8f565b5b610f1287828801610e6d565b91505092959194509250565b60007fffffffff0000000000000000000000000000000000000000000000000000000082169050919050565b610f5381610f1e565b82525050565b6000602082019050610f6e6000830184610f4a565b92915050565b600060208284031215610f8a57610f89610c8a565b5b6000610f9884828501610d40565b91505092915050565b600067ffffffffffffffff821115610fbc57610fbb610d70565b5b610fc582610d5f565b9050602081019050919050565b6000610fe5610fe084610fa1565b610dd0565b90508281526020810184848401111561100157611000610d5a565b5b61100c848285610e1c565b509392505050565b600082601f83011261102957611028610d55565b5b8135611039848260208601610fd2565b91505092915050565b6000806040838503121561105957611058610c8a565b5b600061106785828601610cb5565b925050602083013567ffffffffffffffff81111561108857611087610c8f565b5b61109485828601611014565b9150509250929050565b600081519050919050565b600082825260208201905092915050565b60005b838110156110d85780820151818401526020810190506110bd565b60008484015250505050565b60006110ef8261109e565b6110f981856110a9565b93506111098185602086016110ba565b61111281610d5f565b840191505092915050565b6000602082019050818103600083015261113781846110e4565b905092915050565b61114881610c94565b82525050565b6000602082019050611163600083018461113f565b92915050565b7f69643d0000000000000000000000000000000000000000000000000000000000815250565b600081905092915050565b60006111a58261109e565b6111af818561118f565b93506111bf8185602086016110ba565b80840191505092915050565b60006111d682611169565b6003820191506111e6828461119a565b915081905092915050565b6111fa81610d17565b82525050565b600060608201905061121560008301866111f1565b611222602083018561113f565b818103604083015261123481846110e4565b9050949350505050565b600060608201905061125360008301866111f1565b611260602083018561113f565b61126d60408301846111f1565b949350505050565b7f76616c3d00000000000000000000000000000000000000000000000000000000815250565b60006112a682611275565b6004820191506112b6828461119a565b915081905092915050565b60006040820190506112d660008301856111f1565b81810360208301526112e881846110e4565b90509392505050565b60008151905061130081610c9e565b92915050565b60006020828403121561131c5761131b610c8a565b5b600061132a848285016112f1565b91505092915050565b7f2c00000000000000000000000000000000000000000000000000000000000000815250565b6000611365828561119a565b915061137082611333565b600182019150611380828461119a565b91508190509392505050565b7f4e487b7100000000000000000000000000000000000000000000000000000000600052601260045260246000fd5b7f44454c4554452046524f4d200000000000000000000000000000000000000000600082015250565b60006113f1600c8361118f565b91506113fc826113bb565b600c82019050919050565b7f2057484552452000000000000000000000000000000000000000000000000000600082015250565b600061143d60078361118f565b915061144882611407565b600782019050919050565b600061145e826113e4565b915061146a828561119a565b915061147582611430565b9150611481828461119a565b91508190509392505050565b7f2700000000000000000000000000000000000000000000000000000000000000600082015250565b60006114c360018361118f565b91506114ce8261148d565b600182019050919050565b60006114e4826114b6565b91506114f0828461119a565b91506114fb826114b6565b915081905092915050565b600061151182611430565b915061151d828461119a565b915081905092915050565b7f5550444154452000000000000000000000000000000000000000000000000000600082015250565b600061155e60078361118f565b915061156982611528565b600782019050919050565b7f2053455420000000000000000000000000000000000000000000000000000000600082015250565b60006115aa60058361118f565b91506115b582611574565b600582019050919050565b60006115cb82611551565b91506115d7828661119a565b91506115e28261159d565b91506115ee828561119a565b91506115fa828461119a565b9150819050949350505050565b7f5f00000000000000000000000000000000000000000000000000000000000000600082015250565b600061163d60018361118f565b915061164882611607565b600182019050919050565b600061165f828661119a565b915061166a82611630565b9150611676828561119a565b915061168182611630565b915061168d828461119a565b9150819050949350505050565b7f435245415445205441424c452000000000000000000000000000000000000000600082015250565b60006116d0600d8361118f565b91506116db8261169a565b600d82019050919050565b7f2800000000000000000000000000000000000000000000000000000000000000600082015250565b600061171c60018361118f565b9150611727826116e6565b600182019050919050565b7f2900000000000000000000000000000000000000000000000000000000000000600082015250565b600061176860018361118f565b915061177382611732565b600182019050919050565b6000611789826116c3565b9150611795828661119a565b91506117a082611630565b91506117ac828561119a565b91506117b78261170f565b91506117c3828461119a565b91506117ce8261175b565b9150819050949350505050565b7f494e5345525420494e544f200000000000000000000000000000000000000000600082015250565b6000611811600c8361118f565b915061181c826117db565b600c82019050919050565b7f2956414c55455328000000000000000000000000000000000000000000000000600082015250565b600061185d60088361118f565b915061186882611827565b600882019050919050565b600061187e82611804565b915061188a828661119a565b91506118958261170f565b91506118a1828561119a565b91506118ac82611850565b91506118b8828461119a565b91506118c38261175b565b915081905094935050505056fea264697066735822122074beddcfcdc2b68aa08db298bf30964cee5819c3fd2eea35296026ab45ea3df664736f6c63430008140033","opcodes":"PUSH1 0x80 PUSH1 0x40 MSTORE CALLVALUE DUP1 ISZERO PUSH2 0x10 JUMPI PUSH1 0x0 DUP1 REVERT JUMPDEST POP PUSH2 0x1906 DUP1 PUSH2 0x20 PUSH1 0x0 CODECOPY PUSH1 0x0 RETURN INVALID PUSH1 0x80 PUSH1 0x40 MSTORE PUSH1 0x4 CALLDATASIZE LT PUSH2 0x7B JUMPI PUSH1 0x0 CALLDATALOAD PUSH1 0xE0 SHR DUP1 PUSH4 0x5D5A33A2 GT PUSH2 0x4E JUMPI DUP1 PUSH4 0x5D5A33A2 EQ PUSH2 0x138 JUMPI DUP1 PUSH4 0x88E4F1CB EQ PUSH2 0x163 JUMPI DUP1 PUSH4 0xB2A4C897 EQ PUSH2 0x18E JUMPI DUP1 PUSH4 0xF56EC1ED EQ PUSH2 0x198 JUMPI PUSH2 0x7B JUMP JUMPDEST DUP1 PUSH4 0x4BFC47F EQ PUSH2 0x80 JUMPI DUP1 PUSH4 0x150B7A02 EQ PUSH2 0xA9 JUMPI DUP1 PUSH4 0x19129E5A EQ PUSH2 0xE6 JUMPI DUP1 PUSH4 0x312FA457 EQ PUSH2 0x10F JUMPI JUMPDEST PUSH1 0x0 DUP1 REVERT JUMPDEST CALLVALUE DUP1 ISZERO PUSH2 0x8C JUMPI PUSH1 0x0 DUP1 REVERT JUMPDEST POP PUSH2 0xA7 PUSH1 0x4 DUP1 CALLDATASIZE SUB DUP2 ADD SWAP1 PUSH2 0xA2 SWAP2 SWAP1 PUSH2 0xCCA JUMP JUMPDEST PUSH2 0x1C1 JUMP JUMPDEST STOP JUMPDEST CALLVALUE DUP1 ISZERO PUSH2 0xB5 JUMPI PUSH1 0x0 DUP1 REVERT JUMPDEST POP PUSH2 0xD0 PUSH1 0x4 DUP1 CALLDATASIZE SUB DUP2 ADD SWAP1 PUSH2 0xCB SWAP2 SWAP1 PUSH2 0xE9B JUMP JUMPDEST PUSH2 0x2AA JUMP JUMPDEST PUSH1 0x40 MLOAD PUSH2 0xDD SWAP2 SWAP1 PUSH2 0xF59 JUMP JUMPDEST PUSH1 0x40 MLOAD DUP1 SWAP2 SUB SWAP1 RETURN JUMPDEST CALLVALUE DUP1 ISZERO PUSH2 0xF2 JUMPI PUSH1 0x0 DUP1 REVERT JUMPDEST POP PUSH2 0x10D PUSH1 0x4 DUP1 CALLDATASIZE SUB DUP2 ADD SWAP1 PUSH2 0x108 SWAP2 SWAP1 PUSH2 0xF74 JUMP JUMPDEST PUSH2 0x2BE JUMP JUMPDEST STOP JUMPDEST CALLVALUE DUP1 ISZERO PUSH2 0x11B JUMPI PUSH1 0x0 DUP1 REVERT JUMPDEST POP PUSH2 0x136 PUSH1 0x4 DUP1 CALLDATASIZE SUB DUP2 ADD SWAP1 PUSH2 0x131 SWAP2 SWAP1 PUSH2 0x1042 JUMP JUMPDEST PUSH2 0x339 JUMP JUMPDEST STOP JUMPDEST CALLVALUE DUP1 ISZERO PUSH2 0x144 JUMPI PUSH1 0x0 DUP1 REVERT JUMPDEST POP PUSH2 0x14D PUSH2 0x451 JUMP JUMPDEST PUSH1 0x40 MLOAD PUSH2 0x15A SWAP2 SWAP1 PUSH2 0x111D JUMP JUMPDEST PUSH1 0x40 MLOAD DUP1 SWAP2 SUB SWAP1 RETURN JUMPDEST CALLVALUE DUP1 ISZERO PUSH2 0x16F JUMPI PUSH1 0x0 DUP1 REVERT JUMPDEST POP PUSH2 0x178 PUSH2 0x499 JUMP JUMPDEST PUSH1 0x40 MLOAD PUSH2 0x185 SWAP2 SWAP1 PUSH2 0x114E JUMP JUMPDEST PUSH1 0x40 MLOAD DUP1 SWAP2 SUB SWAP1 RETURN JUMPDEST PUSH2 0x196 PUSH2 0x4A2 JUMP JUMPDEST STOP JUMPDEST CALLVALUE DUP1 ISZERO PUSH2 0x1A4 JUMPI PUSH1 0x0 DUP1 REVERT JUMPDEST POP PUSH2 0x1BF PUSH1 0x4 DUP1 CALLDATASIZE SUB DUP2 ADD SWAP1 PUSH2 0x1BA SWAP2 SWAP1 PUSH2 0x1042 JUMP JUMPDEST PUSH2 0x5A2 JUMP JUMPDEST STOP JUMPDEST PUSH1 0x0 PUSH2 0x1CC DUP3 PUSH2 0x6C6 JUMP JUMPDEST PUSH1 0x40 MLOAD PUSH1 0x20 ADD PUSH2 0x1DC SWAP2 SWAP1 PUSH2 0x11CB JUMP JUMPDEST PUSH1 0x40 MLOAD PUSH1 0x20 DUP2 DUP4 SUB SUB DUP2 MSTORE SWAP1 PUSH1 0x40 MSTORE SWAP1 POP PUSH2 0x1F5 PUSH2 0x794 JUMP JUMPDEST PUSH20 0xFFFFFFFFFFFFFFFFFFFFFFFFFFFFFFFFFFFFFFFF AND PUSH4 0x377AF0DA ADDRESS PUSH1 0x0 SLOAD PUSH2 0x256 PUSH1 0x40 MLOAD DUP1 PUSH1 0x40 ADD PUSH1 0x40 MSTORE DUP1 PUSH1 0x8 DUP2 MSTORE PUSH1 0x20 ADD PUSH32 0x6D795F7461626C65000000000000000000000000000000000000000000000000 DUP2 MSTORE POP PUSH1 0x0 SLOAD DUP8 PUSH2 0x994 JUMP JUMPDEST PUSH1 0x40 MLOAD DUP5 PUSH4 0xFFFFFFFF AND PUSH1 0xE0 SHL DUP2 MSTORE PUSH1 0x4 ADD PUSH2 0x274 SWAP4 SWAP3 SWAP2 SWAP1 PUSH2 0x1200 JUMP JUMPDEST PUSH1 0x0 PUSH1 0x40 MLOAD DUP1 DUP4 SUB DUP2 PUSH1 0x0 DUP8 DUP1 EXTCODESIZE ISZERO DUP1 ISZERO PUSH2 0x28E JUMPI PUSH1 0x0 DUP1 REVERT JUMPDEST POP GAS CALL ISZERO DUP1 ISZERO PUSH2 0x2A2 JUMPI RETURNDATASIZE PUSH1 0x0 DUP1 RETURNDATACOPY RETURNDATASIZE PUSH1 0x0 REVERT JUMPDEST POP POP POP POP POP POP JUMP JUMPDEST PUSH1 0x0 PUSH4 0x150B7A02 PUSH1 0xE0 SHL SWAP1 POP SWAP5 SWAP4 POP POP POP POP JUMP JUMPDEST PUSH2 0x2C6 PUSH2 0x794 JUMP JUMPDEST PUSH20 0xFFFFFFFFFFFFFFFFFFFFFFFFFFFFFFFFFFFFFFFF AND PUSH4 0x8BB0AB97 ADDRESS PUSH1 0x0 SLOAD DUP5 PUSH1 0x40 MLOAD DUP5 PUSH4 0xFFFFFFFF AND PUSH1 0xE0 SHL DUP2 MSTORE PUSH1 0x4 ADD PUSH2 0x304 SWAP4 SWAP3 SWAP2 SWAP1 PUSH2 0x123E JUMP JUMPDEST PUSH1 0x0 PUSH1 0x40 MLOAD DUP1 DUP4 SUB DUP2 PUSH1 0x0 DUP8 DUP1 EXTCODESIZE ISZERO DUP1 ISZERO PUSH2 0x31E JUMPI PUSH1 0x0 DUP1 REVERT JUMPDEST POP GAS CALL ISZERO DUP1 ISZERO PUSH2 0x332 JUMPI RETURNDATASIZE PUSH1 0x0 DUP1 RETURNDATACOPY RETURNDATASIZE PUSH1 0x0 REVERT JUMPDEST POP POP POP POP POP JUMP JUMPDEST PUSH1 0x0 PUSH2 0x344 DUP3 PUSH2 0x9D0 JUMP JUMPDEST PUSH1 0x40 MLOAD PUSH1 0x20 ADD PUSH2 0x354 SWAP2 SWAP1 PUSH2 0x129B JUMP JUMPDEST PUSH1 0x40 MLOAD PUSH1 0x20 DUP2 DUP4 SUB SUB DUP2 MSTORE SWAP1 PUSH1 0x40 MSTORE SWAP1 POP PUSH1 0x0 PUSH2 0x370 DUP5 PUSH2 0x6C6 JUMP JUMPDEST PUSH1 0x40 MLOAD PUSH1 0x20 ADD PUSH2 0x380 SWAP2 SWAP1 PUSH2 0x11CB JUMP JUMPDEST PUSH1 0x40 MLOAD PUSH1 0x20 DUP2 DUP4 SUB SUB DUP2 MSTORE SWAP1 PUSH1 0x40 MSTORE SWAP1 POP PUSH2 0x399 PUSH2 0x794 JUMP JUMPDEST PUSH20 0xFFFFFFFFFFFFFFFFFFFFFFFFFFFFFFFFFFFFFFFF AND PUSH4 0x377AF0DA ADDRESS PUSH1 0x0 SLOAD PUSH2 0x3FB PUSH1 0x40 MLOAD DUP1 PUSH1 0x40 ADD PUSH1 0x40 MSTORE DUP1 PUSH1 0x8 DUP2 MSTORE PUSH1 0x20 ADD PUSH32 0x6D795F7461626C65000000000000000000000000000000000000000000000000 DUP2 MSTORE POP PUSH1 0x0 SLOAD DUP9 DUP9 PUSH2 0x9F9 JUMP JUMPDEST PUSH1 0x40 MLOAD DUP5 PUSH4 0xFFFFFFFF AND PUSH1 0xE0 SHL DUP2 MSTORE PUSH1 0x4 ADD PUSH2 0x419 SWAP4 SWAP3 SWAP2 SWAP1 PUSH2 0x1200 JUMP JUMPDEST PUSH1 0x0 PUSH1 0x40 MLOAD DUP1 DUP4 SUB DUP2 PUSH1 0x0 DUP8 DUP1 EXTCODESIZE ISZERO DUP1 ISZERO PUSH2 0x433 JUMPI PUSH1 0x0 DUP1 REVERT JUMPDEST POP GAS CALL ISZERO DUP1 ISZERO PUSH2 0x447 JUMPI RETURNDATASIZE PUSH1 0x0 DUP1 RETURNDATACOPY RETURNDATASIZE PUSH1 0x0 REVERT JUMPDEST POP POP POP POP POP POP POP POP JUMP JUMPDEST PUSH1 0x60 PUSH2 0x494 PUSH1 0x40 MLOAD DUP1 PUSH1 0x40 ADD PUSH1 0x40 MSTORE DUP1 PUSH1 0x8 DUP2 MSTORE PUSH1 0x20 ADD PUSH32 0x6D795F7461626C65000000000000000000000000000000000000000000000000 DUP2 MSTORE POP PUSH1 0x0 SLOAD PUSH2 0xA7A JUMP JUMPDEST SWAP1 POP SWAP1 JUMP JUMPDEST PUSH1 0x0 DUP1 SLOAD SWAP1 POP SWAP1 JUMP JUMPDEST PUSH2 0x4AA PUSH2 0x794 JUMP JUMPDEST PUSH20 0xFFFFFFFFFFFFFFFFFFFFFFFFFFFFFFFFFFFFFFFF AND PUSH4 0xA15AB08D ADDRESS PUSH2 0x53A PUSH1 0x40 MLOAD DUP1 PUSH1 0x40 ADD PUSH1 0x40 MSTORE DUP1 PUSH1 0x1F DUP2 MSTORE PUSH1 0x20 ADD PUSH32 0x696420696E7465676572207072696D617279206B65792C76616C207465787400 DUP2 MSTORE POP PUSH1 0x40 MLOAD DUP1 PUSH1 0x40 ADD PUSH1 0x40 MSTORE DUP1 PUSH1 0x8 DUP2 MSTORE PUSH1 0x20 ADD PUSH32 0x6D795F7461626C65000000000000000000000000000000000000000000000000 DUP2 MSTORE POP PUSH2 0xAB8 JUMP JUMPDEST PUSH1 0x40 MLOAD DUP4 PUSH4 0xFFFFFFFF AND PUSH1 0xE0 SHL DUP2 MSTORE PUSH1 0x4 ADD PUSH2 0x557 SWAP3 SWAP2 SWAP1 PUSH2 0x12C1 JUMP JUMPDEST PUSH1 0x20 PUSH1 0x40 MLOAD DUP1 DUP4 SUB DUP2 PUSH1 0x0 DUP8 GAS CALL ISZERO DUP1 ISZERO PUSH2 0x576 JUMPI RETURNDATASIZE PUSH1 0x0 DUP1 RETURNDATACOPY RETURNDATASIZE PUSH1 0x0 REVERT JUMPDEST POP POP POP POP PUSH1 0x40 MLOAD RETURNDATASIZE PUSH1 0x1F NOT PUSH1 0x1F DUP3 ADD AND DUP3 ADD DUP1 PUSH1 0x40 MSTORE POP DUP2 ADD SWAP1 PUSH2 0x59A SWAP2 SWAP1 PUSH2 0x1306 JUMP JUMPDEST PUSH1 0x0 DUP2 SWAP1 SSTORE POP JUMP JUMPDEST PUSH2 0x5AA PUSH2 0x794 JUMP JUMPDEST PUSH20 0xFFFFFFFFFFFFFFFFFFFFFFFFFFFFFFFFFFFFFFFF AND PUSH4 0x377AF0DA ADDRESS PUSH1 0x0 SLOAD PUSH2 0x672 PUSH1 0x40 MLOAD DUP1 PUSH1 0x40 ADD PUSH1 0x40 MSTORE DUP1 PUSH1 0x8 DUP2 MSTORE PUSH1 0x20 ADD PUSH32 0x6D795F7461626C65000000000000000000000000000000000000000000000000 DUP2 MSTORE POP PUSH1 0x0 SLOAD PUSH1 0x40 MLOAD DUP1 PUSH1 0x40 ADD PUSH1 0x40 MSTORE DUP1 PUSH1 0x6 DUP2 MSTORE PUSH1 0x20 ADD PUSH32 0x69642C76616C0000000000000000000000000000000000000000000000000000 DUP2 MSTORE POP PUSH2 0x644 DUP11 PUSH2 0x6C6 JUMP JUMPDEST PUSH2 0x64D DUP11 PUSH2 0x9D0 JUMP JUMPDEST PUSH1 0x40 MLOAD PUSH1 0x20 ADD PUSH2 0x65E SWAP3 SWAP2 SWAP1 PUSH2 0x1359 JUMP JUMPDEST PUSH1 0x40 MLOAD PUSH1 0x20 DUP2 DUP4 SUB SUB DUP2 MSTORE SWAP1 PUSH1 0x40 MSTORE PUSH2 0xAEE JUMP JUMPDEST PUSH1 0x40 MLOAD DUP5 PUSH4 0xFFFFFFFF AND PUSH1 0xE0 SHL DUP2 MSTORE PUSH1 0x4 ADD PUSH2 0x690 SWAP4 SWAP3 SWAP2 SWAP1 PUSH2 0x1200 JUMP JUMPDEST PUSH1 0x0 PUSH1 0x40 MLOAD DUP1 DUP4 SUB DUP2 PUSH1 0x0 DUP8 DUP1 EXTCODESIZE ISZERO DUP1 ISZERO PUSH2 0x6AA JUMPI PUSH1 0x0 DUP1 REVERT JUMPDEST POP GAS CALL ISZERO DUP1 ISZERO PUSH2 0x6BE JUMPI RETURNDATASIZE PUSH1 0x0 DUP1 RETURNDATACOPY RETURNDATASIZE PUSH1 0x0 REVERT JUMPDEST POP POP POP POP POP POP JUMP JUMPDEST PUSH1 0x60 PUSH1 0x0 PUSH1 0x1 PUSH2 0x6D5 DUP5 PUSH2 0xB2D JUMP JUMPDEST ADD SWAP1 POP PUSH1 0x0 DUP2 PUSH8 0xFFFFFFFFFFFFFFFF DUP2 GT ISZERO PUSH2 0x6F4 JUMPI PUSH2 0x6F3 PUSH2 0xD70 JUMP JUMPDEST JUMPDEST PUSH1 0x40 MLOAD SWAP1 DUP1 DUP3 MSTORE DUP1 PUSH1 0x1F ADD PUSH1 0x1F NOT AND PUSH1 0x20 ADD DUP3 ADD PUSH1 0x40 MSTORE DUP1 ISZERO PUSH2 0x726 JUMPI DUP2 PUSH1 0x20 ADD PUSH1 0x1 DUP3 MUL DUP1 CALLDATASIZE DUP4 CALLDATACOPY DUP1 DUP3 ADD SWAP2 POP POP SWAP1 POP JUMPDEST POP SWAP1 POP PUSH1 0x0 DUP3 PUSH1 0x20 ADD DUP3 ADD SWAP1 POP JUMPDEST PUSH1 0x1 ISZERO PUSH2 0x789 JUMPI DUP1 DUP1 PUSH1 0x1 SWAP1 SUB SWAP2 POP POP PUSH32 0x3031323334353637383961626364656600000000000000000000000000000000 PUSH1 0xA DUP7 MOD BYTE DUP2 MSTORE8 PUSH1 0xA DUP6 DUP2 PUSH2 0x77D JUMPI PUSH2 0x77C PUSH2 0x138C JUMP JUMPDEST JUMPDEST DIV SWAP5 POP PUSH1 0x0 DUP6 SUB PUSH2 0x734 JUMPI JUMPDEST DUP2 SWAP4 POP POP POP POP SWAP2 SWAP1 POP JUMP JUMPDEST PUSH1 0x0 PUSH1 0x1 CHAINID SUB PUSH2 0x7BA JUMPI PUSH20 0x12969F7E3439A9B04025B5A049EB9BAD82A8C12 SWAP1 POP PUSH2 0x991 JUMP JUMPDEST PUSH1 0xA CHAINID SUB PUSH2 0x7DE JUMPI PUSH20 0xFAD44BF5B843DE943A09D4F3E84949A11D3AA3E6 SWAP1 POP PUSH2 0x991 JUMP JUMPDEST PUSH2 0xA4B1 CHAINID SUB PUSH2 0x803 JUMPI PUSH20 0x9ABD75E8640871A5A20D3B4EE6330A04C962AFFD SWAP1 POP PUSH2 0x991 JUMP JUMPDEST PUSH2 0xA4BA CHAINID SUB PUSH2 0x828 JUMPI PUSH20 0x1A22854C5B1642760A827F20137A67930AE108D2 SWAP1 POP PUSH2 0x991 JUMP JUMPDEST PUSH1 0x89 CHAINID SUB PUSH2 0x84C JUMPI PUSH20 0x5C4E6A9E5C1E1BF445A062006FAF19EA6C49AFEA SWAP1 POP PUSH2 0x991 JUMP JUMPDEST PUSH2 0x13A CHAINID SUB PUSH2 0x871 JUMPI PUSH20 0x59EF8BF2D6C102B4C42AEF9189E1A9F0ABFD652D SWAP1 POP PUSH2 0x991 JUMP JUMPDEST PUSH3 0xAA36A7 CHAINID SUB PUSH2 0x897 JUMPI PUSH20 0xC50C62498448ACC8DBDE43DA77F8D5D2E2C7597D SWAP1 POP PUSH2 0x991 JUMP JUMPDEST PUSH3 0xAA37DC CHAINID SUB PUSH2 0x8BD JUMPI PUSH20 0x68A2F4423AD3BF5139DB563CF3BC80AA09ED7079 SWAP1 POP PUSH2 0x991 JUMP JUMPDEST PUSH3 0x66EEE CHAINID SUB PUSH2 0x8E3 JUMPI PUSH20 0x223A74B8323914AFDC3FF1E5005564DC17231D6E SWAP1 POP PUSH2 0x991 JUMP JUMPDEST PUSH3 0x13881 CHAINID SUB PUSH2 0x909 JUMPI PUSH20 0x4B48841D4B32C4650E4ABC117A03FE8B51F38F68 SWAP1 POP PUSH2 0x991 JUMP JUMPDEST PUSH3 0x4CB2F CHAINID SUB PUSH2 0x92F JUMPI PUSH20 0x30BCF3D50CAD04C2E57391B12740982A9308621 SWAP1 POP PUSH2 0x991 JUMP JUMPDEST PUSH2 0x7A69 CHAINID SUB PUSH2 0x954 JUMPI PUSH20 0xE7F1725E7734CE288F8367E1BB143E90BB3F0512 SWAP1 POP PUSH2 0x991 JUMP JUMPDEST CHAINID PUSH1 0x40 MLOAD PUSH32 0x264E42CF00000000000000000000000000000000000000000000000000000000 DUP2 MSTORE PUSH1 0x4 ADD PUSH2 0x988 SWAP2 SWAP1 PUSH2 0x114E JUMP JUMPDEST PUSH1 0x40 MLOAD DUP1 SWAP2 SUB SWAP1 REVERT JUMPDEST SWAP1 JUMP JUMPDEST PUSH1 0x60 PUSH1 0x0 PUSH2 0x9A2 DUP6 DUP6 PUSH2 0xA7A JUMP JUMPDEST SWAP1 POP DUP1 DUP4 PUSH1 0x40 MLOAD PUSH1 0x20 ADD PUSH2 0x9B7 SWAP3 SWAP2 SWAP1 PUSH2 0x1453 JUMP JUMPDEST PUSH1 0x40 MLOAD PUSH1 0x20 DUP2 DUP4 SUB SUB DUP2 MSTORE SWAP1 PUSH1 0x40 MSTORE SWAP2 POP POP SWAP4 SWAP3 POP POP POP JUMP JUMPDEST PUSH1 0x60 DUP2 PUSH1 0x40 MLOAD PUSH1 0x20 ADD PUSH2 0x9E3 SWAP2 SWAP1 PUSH2 0x14D9 JUMP JUMPDEST PUSH1 0x40 MLOAD PUSH1 0x20 DUP2 DUP4 SUB SUB DUP2 MSTORE SWAP1 PUSH1 0x40 MSTORE SWAP1 POP SWAP2 SWAP1 POP JUMP JUMPDEST PUSH1 0x60 PUSH1 0x0 PUSH2 0xA07 DUP7 DUP7 PUSH2 0xA7A JUMP JUMPDEST SWAP1 POP PUSH1 0x0 PUSH1 0x40 MLOAD DUP1 PUSH1 0x20 ADD PUSH1 0x40 MSTORE DUP1 PUSH1 0x0 DUP2 MSTORE POP SWAP1 POP PUSH1 0x0 DUP5 MLOAD GT ISZERO PUSH2 0xA4A JUMPI DUP4 PUSH1 0x40 MLOAD PUSH1 0x20 ADD PUSH2 0xA38 SWAP2 SWAP1 PUSH2 0x1506 JUMP JUMPDEST PUSH1 0x40 MLOAD PUSH1 0x20 DUP2 DUP4 SUB SUB DUP2 MSTORE SWAP1 PUSH1 0x40 MSTORE SWAP1 POP JUMPDEST DUP2 DUP6 DUP3 PUSH1 0x40 MLOAD PUSH1 0x20 ADD PUSH2 0xA5F SWAP4 SWAP3 SWAP2 SWAP1 PUSH2 0x15C0 JUMP JUMPDEST PUSH1 0x40 MLOAD PUSH1 0x20 DUP2 DUP4 SUB SUB DUP2 MSTORE SWAP1 PUSH1 0x40 MSTORE SWAP3 POP POP POP SWAP5 SWAP4 POP POP POP POP JUMP JUMPDEST PUSH1 0x60 DUP3 PUSH2 0xA86 CHAINID PUSH2 0x6C6 JUMP JUMPDEST PUSH2 0xA8F DUP5 PUSH2 0x6C6 JUMP JUMPDEST PUSH1 0x40 MLOAD PUSH1 0x20 ADD PUSH2 0xAA1 SWAP4 SWAP3 SWAP2 SWAP1 PUSH2 0x1653 JUMP JUMPDEST PUSH1 0x40 MLOAD PUSH1 0x20 DUP2 DUP4 SUB SUB DUP2 MSTORE SWAP1 PUSH1 0x40 MSTORE SWAP1 POP SWAP3 SWAP2 POP POP JUMP JUMPDEST PUSH1 0x60 DUP2 PUSH2 0xAC4 CHAINID PUSH2 0x6C6 JUMP JUMPDEST DUP5 PUSH1 0x40 MLOAD PUSH1 0x20 ADD PUSH2 0xAD7 SWAP4 SWAP3 SWAP2 SWAP1 PUSH2 0x177E JUMP JUMPDEST PUSH1 0x40 MLOAD PUSH1 0x20 DUP2 DUP4 SUB SUB DUP2 MSTORE SWAP1 PUSH1 0x40 MSTORE SWAP1 POP SWAP3 SWAP2 POP POP JUMP JUMPDEST PUSH1 0x60 PUSH1 0x0 PUSH2 0xAFC DUP7 DUP7 PUSH2 0xA7A JUMP JUMPDEST SWAP1 POP DUP1 DUP5 DUP5 PUSH1 0x40 MLOAD PUSH1 0x20 ADD PUSH2 0xB13 SWAP4 SWAP3 SWAP2 SWAP1 PUSH2 0x1873 JUMP JUMPDEST PUSH1 0x40 MLOAD PUSH1 0x20 DUP2 DUP4 SUB SUB DUP2 MSTORE SWAP1 PUSH1 0x40 MSTORE SWAP2 POP POP SWAP5 SWAP4 POP POP POP POP JUMP JUMPDEST PUSH1 0x0 DUP1 PUSH1 0x0 SWAP1 POP PUSH27 0x184F03E93FF9F4DAA797ED6E38ED64BF6A1F010000000000000000 DUP4 LT PUSH2 0xB8B JUMPI PUSH27 0x184F03E93FF9F4DAA797ED6E38ED64BF6A1F010000000000000000 DUP4 DUP2 PUSH2 0xB81 JUMPI PUSH2 0xB80 PUSH2 0x138C JUMP JUMPDEST JUMPDEST DIV SWAP3 POP PUSH1 0x40 DUP2 ADD SWAP1 POP JUMPDEST PUSH14 0x4EE2D6D415B85ACEF8100000000 DUP4 LT PUSH2 0xBC8 JUMPI PUSH14 0x4EE2D6D415B85ACEF8100000000 DUP4 DUP2 PUSH2 0xBBE JUMPI PUSH2 0xBBD PUSH2 0x138C JUMP JUMPDEST JUMPDEST DIV SWAP3 POP PUSH1 0x20 DUP2 ADD SWAP1 POP JUMPDEST PUSH7 0x2386F26FC10000 DUP4 LT PUSH2 0xBF7 JUMPI PUSH7 0x2386F26FC10000 DUP4 DUP2 PUSH2 0xBED JUMPI PUSH2 0xBEC PUSH2 0x138C JUMP JUMPDEST JUMPDEST DIV SWAP3 POP PUSH1 0x10 DUP2 ADD SWAP1 POP JUMPDEST PUSH4 0x5F5E100 DUP4 LT PUSH2 0xC20 JUMPI PUSH4 0x5F5E100 DUP4 DUP2 PUSH2 0xC16 JUMPI PUSH2 0xC15 PUSH2 0x138C JUMP JUMPDEST JUMPDEST DIV SWAP3 POP PUSH1 0x8 DUP2 ADD SWAP1 POP JUMPDEST PUSH2 0x2710 DUP4 LT PUSH2 0xC45 JUMPI PUSH2 0x2710 DUP4 DUP2 PUSH2 0xC3B JUMPI PUSH2 0xC3A PUSH2 0x138C JUMP JUMPDEST JUMPDEST DIV SWAP3 POP PUSH1 0x4 DUP2 ADD SWAP1 POP JUMPDEST PUSH1 0x64 DUP4 LT PUSH2 0xC68 JUMPI PUSH1 0x64 DUP4 DUP2 PUSH2 0xC5E JUMPI PUSH2 0xC5D PUSH2 0x138C JUMP JUMPDEST JUMPDEST DIV SWAP3 POP PUSH1 0x2 DUP2 ADD SWAP1 POP JUMPDEST PUSH1 0xA DUP4 LT PUSH2 0xC77 JUMPI PUSH1 0x1 DUP2 ADD SWAP1 POP JUMPDEST DUP1 SWAP2 POP POP SWAP2 SWAP1 POP JUMP JUMPDEST PUSH1 0x0 PUSH1 0x40 MLOAD SWAP1 POP SWAP1 JUMP JUMPDEST PUSH1 0x0 DUP1 REVERT JUMPDEST PUSH1 0x0 DUP1 REVERT JUMPDEST PUSH1 0x0 DUP2 SWAP1 POP SWAP2 SWAP1 POP JUMP JUMPDEST PUSH2 0xCA7 DUP2 PUSH2 0xC94 JUMP JUMPDEST DUP2 EQ PUSH2 0xCB2 JUMPI PUSH1 0x0 DUP1 REVERT JUMPDEST POP JUMP JUMPDEST PUSH1 0x0 DUP2 CALLDATALOAD SWAP1 POP PUSH2 0xCC4 DUP2 PUSH2 0xC9E JUMP JUMPDEST SWAP3 SWAP2 POP POP JUMP JUMPDEST PUSH1 0x0 PUSH1 0x20 DUP3 DUP5 SUB SLT ISZERO PUSH2 0xCE0 JUMPI PUSH2 0xCDF PUSH2 0xC8A JUMP JUMPDEST JUMPDEST PUSH1 0x0 PUSH2 0xCEE DUP5 DUP3 DUP6 ADD PUSH2 0xCB5 JUMP JUMPDEST SWAP2 POP POP SWAP3 SWAP2 POP POP JUMP JUMPDEST PUSH1 0x0 PUSH20 0xFFFFFFFFFFFFFFFFFFFFFFFFFFFFFFFFFFFFFFFF DUP3 AND SWAP1 POP SWAP2 SWAP1 POP JUMP JUMPDEST PUSH1 0x0 PUSH2 0xD22 DUP3 PUSH2 0xCF7 JUMP JUMPDEST SWAP1 POP SWAP2 SWAP1 POP JUMP JUMPDEST PUSH2 0xD32 DUP2 PUSH2 0xD17 JUMP JUMPDEST DUP2 EQ PUSH2 0xD3D JUMPI PUSH1 0x0 DUP1 REVERT JUMPDEST POP JUMP JUMPDEST PUSH1 0x0 DUP2 CALLDATALOAD SWAP1 POP PUSH2 0xD4F DUP2 PUSH2 0xD29 JUMP JUMPDEST SWAP3 SWAP2 POP POP JUMP JUMPDEST PUSH1 0x0 DUP1 REVERT JUMPDEST PUSH1 0x0 DUP1 REVERT JUMPDEST PUSH1 0x0 PUSH1 0x1F NOT PUSH1 0x1F DUP4 ADD AND SWAP1 POP SWAP2 SWAP1 POP JUMP JUMPDEST PUSH32 0x4E487B7100000000000000000000000000000000000000000000000000000000 PUSH1 0x0 MSTORE PUSH1 0x41 PUSH1 0x4 MSTORE PUSH1 0x24 PUSH1 0x0 REVERT JUMPDEST PUSH2 0xDA8 DUP3 PUSH2 0xD5F JUMP JUMPDEST DUP2 ADD DUP2 DUP2 LT PUSH8 0xFFFFFFFFFFFFFFFF DUP3 GT OR ISZERO PUSH2 0xDC7 JUMPI PUSH2 0xDC6 PUSH2 0xD70 JUMP JUMPDEST JUMPDEST DUP1 PUSH1 0x40 MSTORE POP POP POP JUMP JUMPDEST PUSH1 0x0 PUSH2 0xDDA PUSH2 0xC80 JUMP JUMPDEST SWAP1 POP PUSH2 0xDE6 DUP3 DUP3 PUSH2 0xD9F JUMP JUMPDEST SWAP2 SWAP1 POP JUMP JUMPDEST PUSH1 0x0 PUSH8 0xFFFFFFFFFFFFFFFF DUP3 GT ISZERO PUSH2 0xE06 JUMPI PUSH2 0xE05 PUSH2 0xD70 JUMP JUMPDEST JUMPDEST PUSH2 0xE0F DUP3 PUSH2 0xD5F JUMP JUMPDEST SWAP1 POP PUSH1 0x20 DUP2 ADD SWAP1 POP SWAP2 SWAP1 POP JUMP JUMPDEST DUP3 DUP2 DUP4 CALLDATACOPY PUSH1 0x0 DUP4 DUP4 ADD MSTORE POP POP POP JUMP JUMPDEST PUSH1 0x0 PUSH2 0xE3E PUSH2 0xE39 DUP5 PUSH2 0xDEB JUMP JUMPDEST PUSH2 0xDD0 JUMP JUMPDEST SWAP1 POP DUP3 DUP2 MSTORE PUSH1 0x20 DUP2 ADD DUP5 DUP5 DUP5 ADD GT ISZERO PUSH2 0xE5A JUMPI PUSH2 0xE59 PUSH2 0xD5A JUMP JUMPDEST JUMPDEST PUSH2 0xE65 DUP5 DUP3 DUP6 PUSH2 0xE1C JUMP JUMPDEST POP SWAP4 SWAP3 POP POP POP JUMP JUMPDEST PUSH1 0x0 DUP3 PUSH1 0x1F DUP4 ADD SLT PUSH2 0xE82 JUMPI PUSH2 0xE81 PUSH2 0xD55 JUMP JUMPDEST JUMPDEST DUP2 CALLDATALOAD PUSH2 0xE92 DUP5 DUP3 PUSH1 0x20 DUP7 ADD PUSH2 0xE2B JUMP JUMPDEST SWAP2 POP POP SWAP3 SWAP2 POP POP JUMP JUMPDEST PUSH1 0x0 DUP1 PUSH1 0x0 DUP1 PUSH1 0x80 DUP6 DUP8 SUB SLT ISZERO PUSH2 0xEB5 JUMPI PUSH2 0xEB4 PUSH2 0xC8A JUMP JUMPDEST JUMPDEST PUSH1 0x0 PUSH2 0xEC3 DUP8 DUP3 DUP9 ADD PUSH2 0xD40 JUMP JUMPDEST SWAP5 POP POP PUSH1 0x20 PUSH2 0xED4 DUP8 DUP3 DUP9 ADD PUSH2 0xD40 JUMP JUMPDEST SWAP4 POP POP PUSH1 0x40 PUSH2 0xEE5 DUP8 DUP3 DUP9 ADD PUSH2 0xCB5 JUMP JUMPDEST SWAP3 POP POP PUSH1 0x60 DUP6 ADD CALLDATALOAD PUSH8 0xFFFFFFFFFFFFFFFF DUP2 GT ISZERO PUSH2 0xF06 JUMPI PUSH2 0xF05 PUSH2 0xC8F JUMP JUMPDEST JUMPDEST PUSH2 0xF12 DUP8 DUP3 DUP9 ADD PUSH2 0xE6D JUMP JUMPDEST SWAP2 POP POP SWAP3 SWAP6 SWAP2 SWAP5 POP SWAP3 POP JUMP JUMPDEST PUSH1 0x0 PUSH32 0xFFFFFFFF00000000000000000000000000000000000000000000000000000000 DUP3 AND SWAP1 POP SWAP2 SWAP1 POP JUMP JUMPDEST PUSH2 0xF53 DUP2 PUSH2 0xF1E JUMP JUMPDEST DUP3 MSTORE POP POP JUMP JUMPDEST PUSH1 0x0 PUSH1 0x20 DUP3 ADD SWAP1 POP PUSH2 0xF6E PUSH1 0x0 DUP4 ADD DUP5 PUSH2 0xF4A JUMP JUMPDEST SWAP3 SWAP2 POP POP JUMP JUMPDEST PUSH1 0x0 PUSH1 0x20 DUP3 DUP5 SUB SLT ISZERO PUSH2 0xF8A JUMPI PUSH2 0xF89 PUSH2 0xC8A JUMP JUMPDEST JUMPDEST PUSH1 0x0 PUSH2 0xF98 DUP5 DUP3 DUP6 ADD PUSH2 0xD40 JUMP JUMPDEST SWAP2 POP POP SWAP3 SWAP2 POP POP JUMP JUMPDEST PUSH1 0x0 PUSH8 0xFFFFFFFFFFFFFFFF DUP3 GT ISZERO PUSH2 0xFBC JUMPI PUSH2 0xFBB PUSH2 0xD70 JUMP JUMPDEST JUMPDEST PUSH2 0xFC5 DUP3 PUSH2 0xD5F JUMP JUMPDEST SWAP1 POP PUSH1 0x20 DUP2 ADD SWAP1 POP SWAP2 SWAP1 POP JUMP JUMPDEST PUSH1 0x0 PUSH2 0xFE5 PUSH2 0xFE0 DUP5 PUSH2 0xFA1 JUMP JUMPDEST PUSH2 0xDD0 JUMP JUMPDEST SWAP1 POP DUP3 DUP2 MSTORE PUSH1 0x20 DUP2 ADD DUP5 DUP5 DUP5 ADD GT ISZERO PUSH2 0x1001 JUMPI PUSH2 0x1000 PUSH2 0xD5A JUMP JUMPDEST JUMPDEST PUSH2 0x100C DUP5 DUP3 DUP6 PUSH2 0xE1C JUMP JUMPDEST POP SWAP4 SWAP3 POP POP POP JUMP JUMPDEST PUSH1 0x0 DUP3 PUSH1 0x1F DUP4 ADD SLT PUSH2 0x1029 JUMPI PUSH2 0x1028 PUSH2 0xD55 JUMP JUMPDEST JUMPDEST DUP2 CALLDATALOAD PUSH2 0x1039 DUP5 DUP3 PUSH1 0x20 DUP7 ADD PUSH2 0xFD2 JUMP JUMPDEST SWAP2 POP POP SWAP3 SWAP2 POP POP JUMP JUMPDEST PUSH1 0x0 DUP1 PUSH1 0x40 DUP4 DUP6 SUB SLT ISZERO PUSH2 0x1059 JUMPI PUSH2 0x1058 PUSH2 0xC8A JUMP JUMPDEST JUMPDEST PUSH1 0x0 PUSH2 0x1067 DUP6 DUP3 DUP7 ADD PUSH2 0xCB5 JUMP JUMPDEST SWAP3 POP POP PUSH1 0x20 DUP4 ADD CALLDATALOAD PUSH8 0xFFFFFFFFFFFFFFFF DUP2 GT ISZERO PUSH2 0x1088 JUMPI PUSH2 0x1087 PUSH2 0xC8F JUMP JUMPDEST JUMPDEST PUSH2 0x1094 DUP6 DUP3 DUP7 ADD PUSH2 0x1014 JUMP JUMPDEST SWAP2 POP POP SWAP3 POP SWAP3 SWAP1 POP JUMP JUMPDEST PUSH1 0x0 DUP2 MLOAD SWAP1 POP SWAP2 SWAP1 POP JUMP JUMPDEST PUSH1 0x0 DUP3 DUP3 MSTORE PUSH1 0x20 DUP3 ADD SWAP1 POP SWAP3 SWAP2 POP POP JUMP JUMPDEST PUSH1 0x0 JUMPDEST DUP4 DUP2 LT ISZERO PUSH2 0x10D8 JUMPI DUP1 DUP3 ADD MLOAD DUP2 DUP5 ADD MSTORE PUSH1 0x20 DUP2 ADD SWAP1 POP PUSH2 0x10BD JUMP JUMPDEST PUSH1 0x0 DUP5 DUP5 ADD MSTORE POP POP POP POP JUMP JUMPDEST PUSH1 0x0 PUSH2 0x10EF DUP3 PUSH2 0x109E JUMP JUMPDEST PUSH2 0x10F9 DUP2 DUP6 PUSH2 0x10A9 JUMP JUMPDEST SWAP4 POP PUSH2 0x1109 DUP2 DUP6 PUSH1 0x20 DUP7 ADD PUSH2 0x10BA JUMP JUMPDEST PUSH2 0x1112 DUP2 PUSH2 0xD5F JUMP JUMPDEST DUP5 ADD SWAP2 POP POP SWAP3 SWAP2 POP POP JUMP JUMPDEST PUSH1 0x0 PUSH1 0x20 DUP3 ADD SWAP1 POP DUP2 DUP2 SUB PUSH1 0x0 DUP4 ADD MSTORE PUSH2 0x1137 DUP2 DUP5 PUSH2 0x10E4 JUMP JUMPDEST SWAP1 POP SWAP3 SWAP2 POP POP JUMP JUMPDEST PUSH2 0x1148 DUP2 PUSH2 0xC94 JUMP JUMPDEST DUP3 MSTORE POP POP JUMP JUMPDEST PUSH1 0x0 PUSH1 0x20 DUP3 ADD SWAP1 POP PUSH2 0x1163 PUSH1 0x0 DUP4 ADD DUP5 PUSH2 0x113F JUMP JUMPDEST SWAP3 SWAP2 POP POP JUMP JUMPDEST PUSH32 0x69643D0000000000000000000000000000000000000000000000000000000000 DUP2 MSTORE POP JUMP JUMPDEST PUSH1 0x0 DUP2 SWAP1 POP SWAP3 SWAP2 POP POP JUMP JUMPDEST PUSH1 0x0 PUSH2 0x11A5 DUP3 PUSH2 0x109E JUMP JUMPDEST PUSH2 0x11AF DUP2 DUP6 PUSH2 0x118F JUMP JUMPDEST SWAP4 POP PUSH2 0x11BF DUP2 DUP6 PUSH1 0x20 DUP7 ADD PUSH2 0x10BA JUMP JUMPDEST DUP1 DUP5 ADD SWAP2 POP POP SWAP3 SWAP2 POP POP JUMP JUMPDEST PUSH1 0x0 PUSH2 0x11D6 DUP3 PUSH2 0x1169 JUMP JUMPDEST PUSH1 0x3 DUP3 ADD SWAP2 POP PUSH2 0x11E6 DUP3 DUP5 PUSH2 0x119A JUMP JUMPDEST SWAP2 POP DUP2 SWAP1 POP SWAP3 SWAP2 POP POP JUMP JUMPDEST PUSH2 0x11FA DUP2 PUSH2 0xD17 JUMP JUMPDEST DUP3 MSTORE POP POP JUMP JUMPDEST PUSH1 0x0 PUSH1 0x60 DUP3 ADD SWAP1 POP PUSH2 0x1215 PUSH1 0x0 DUP4 ADD DUP7 PUSH2 0x11F1 JUMP JUMPDEST PUSH2 0x1222 PUSH1 0x20 DUP4 ADD DUP6 PUSH2 0x113F JUMP JUMPDEST DUP2 DUP2 SUB PUSH1 0x40 DUP4 ADD MSTORE PUSH2 0x1234 DUP2 DUP5 PUSH2 0x10E4 JUMP JUMPDEST SWAP1 POP SWAP5 SWAP4 POP POP POP POP JUMP JUMPDEST PUSH1 0x0 PUSH1 0x60 DUP3 ADD SWAP1 POP PUSH2 0x1253 PUSH1 0x0 DUP4 ADD DUP7 PUSH2 0x11F1 JUMP JUMPDEST PUSH2 0x1260 PUSH1 0x20 DUP4 ADD DUP6 PUSH2 0x113F JUMP JUMPDEST PUSH2 0x126D PUSH1 0x40 DUP4 ADD DUP5 PUSH2 0x11F1 JUMP JUMPDEST SWAP5 SWAP4 POP POP POP POP JUMP JUMPDEST PUSH32 0x76616C3D00000000000000000000000000000000000000000000000000000000 DUP2 MSTORE POP JUMP JUMPDEST PUSH1 0x0 PUSH2 0x12A6 DUP3 PUSH2 0x1275 JUMP JUMPDEST PUSH1 0x4 DUP3 ADD SWAP2 POP PUSH2 0x12B6 DUP3 DUP5 PUSH2 0x119A JUMP JUMPDEST SWAP2 POP DUP2 SWAP1 POP SWAP3 SWAP2 POP POP JUMP JUMPDEST PUSH1 0x0 PUSH1 0x40 DUP3 ADD SWAP1 POP PUSH2 0x12D6 PUSH1 0x0 DUP4 ADD DUP6 PUSH2 0x11F1 JUMP JUMPDEST DUP2 DUP2 SUB PUSH1 0x20 DUP4 ADD MSTORE PUSH2 0x12E8 DUP2 DUP5 PUSH2 0x10E4 JUMP JUMPDEST SWAP1 POP SWAP4 SWAP3 POP POP POP JUMP JUMPDEST PUSH1 0x0 DUP2 MLOAD SWAP1 POP PUSH2 0x1300 DUP2 PUSH2 0xC9E JUMP JUMPDEST SWAP3 SWAP2 POP POP JUMP JUMPDEST PUSH1 0x0 PUSH1 0x20 DUP3 DUP5 SUB SLT ISZERO PUSH2 0x131C JUMPI PUSH2 0x131B PUSH2 0xC8A JUMP JUMPDEST JUMPDEST PUSH1 0x0 PUSH2 0x132A DUP5 DUP3 DUP6 ADD PUSH2 0x12F1 JUMP JUMPDEST SWAP2 POP POP SWAP3 SWAP2 POP POP JUMP JUMPDEST PUSH32 0x2C00000000000000000000000000000000000000000000000000000000000000 DUP2 MSTORE POP JUMP JUMPDEST PUSH1 0x0 PUSH2 0x1365 DUP3 DUP6 PUSH2 0x119A JUMP JUMPDEST SWAP2 POP PUSH2 0x1370 DUP3 PUSH2 0x1333 JUMP JUMPDEST PUSH1 0x1 DUP3 ADD SWAP2 POP PUSH2 0x1380 DUP3 DUP5 PUSH2 0x119A JUMP JUMPDEST SWAP2 POP DUP2 SWAP1 POP SWAP4 SWAP3 POP POP POP JUMP JUMPDEST PUSH32 0x4E487B7100000000000000000000000000000000000000000000000000000000 PUSH1 0x0 MSTORE PUSH1 0x12 PUSH1 0x4 MSTORE PUSH1 0x24 PUSH1 0x0 REVERT JUMPDEST PUSH32 0x44454C4554452046524F4D200000000000000000000000000000000000000000 PUSH1 0x0 DUP3 ADD MSTORE POP JUMP JUMPDEST PUSH1 0x0 PUSH2 0x13F1 PUSH1 0xC DUP4 PUSH2 0x118F JUMP JUMPDEST SWAP2 POP PUSH2 0x13FC DUP3 PUSH2 0x13BB JUMP JUMPDEST PUSH1 0xC DUP3 ADD SWAP1 POP SWAP2 SWAP1 POP JUMP JUMPDEST PUSH32 0x2057484552452000000000000000000000000000000000000000000000000000 PUSH1 0x0 DUP3 ADD MSTORE POP JUMP JUMPDEST PUSH1 0x0 PUSH2 0x143D PUSH1 0x7 DUP4 PUSH2 0x118F JUMP JUMPDEST SWAP2 POP PUSH2 0x1448 DUP3 PUSH2 0x1407 JUMP JUMPDEST PUSH1 0x7 DUP3 ADD SWAP1 POP SWAP2 SWAP1 POP JUMP JUMPDEST PUSH1 0x0 PUSH2 0x145E DUP3 PUSH2 0x13E4 JUMP JUMPDEST SWAP2 POP PUSH2 0x146A DUP3 DUP6 PUSH2 0x119A JUMP JUMPDEST SWAP2 POP PUSH2 0x1475 DUP3 PUSH2 0x1430 JUMP JUMPDEST SWAP2 POP PUSH2 0x1481 DUP3 DUP5 PUSH2 0x119A JUMP JUMPDEST SWAP2 POP DUP2 SWAP1 POP SWAP4 SWAP3 POP POP POP JUMP JUMPDEST PUSH32 0x2700000000000000000000000000000000000000000000000000000000000000 PUSH1 0x0 DUP3 ADD MSTORE POP JUMP JUMPDEST PUSH1 0x0 PUSH2 0x14C3 PUSH1 0x1 DUP4 PUSH2 0x118F JUMP JUMPDEST SWAP2 POP PUSH2 0x14CE DUP3 PUSH2 0x148D JUMP JUMPDEST PUSH1 0x1 DUP3 ADD SWAP1 POP SWAP2 SWAP1 POP JUMP JUMPDEST PUSH1 0x0 PUSH2 0x14E4 DUP3 PUSH2 0x14B6 JUMP JUMPDEST SWAP2 POP PUSH2 0x14F0 DUP3 DUP5 PUSH2 0x119A JUMP JUMPDEST SWAP2 POP PUSH2 0x14FB DUP3 PUSH2 0x14B6 JUMP JUMPDEST SWAP2 POP DUP2 SWAP1 POP SWAP3 SWAP2 POP POP JUMP JUMPDEST PUSH1 0x0 PUSH2 0x1511 DUP3 PUSH2 0x1430 JUMP JUMPDEST SWAP2 POP PUSH2 0x151D DUP3 DUP5 PUSH2 0x119A JUMP JUMPDEST SWAP2 POP DUP2 SWAP1 POP SWAP3 SWAP2 POP POP JUMP JUMPDEST PUSH32 0x5550444154452000000000000000000000000000000000000000000000000000 PUSH1 0x0 DUP3 ADD MSTORE POP JUMP JUMPDEST PUSH1 0x0 PUSH2 0x155E PUSH1 0x7 DUP4 PUSH2 0x118F JUMP JUMPDEST SWAP2 POP PUSH2 0x1569 DUP3 PUSH2 0x1528 JUMP JUMPDEST PUSH1 0x7 DUP3 ADD SWAP1 POP SWAP2 SWAP1 POP JUMP JUMPDEST PUSH32 0x2053455420000000000000000000000000000000000000000000000000000000 PUSH1 0x0 DUP3 ADD MSTORE POP JUMP JUMPDEST PUSH1 0x0 PUSH2 0x15AA PUSH1 0x5 DUP4 PUSH2 0x118F JUMP JUMPDEST SWAP2 POP PUSH2 0x15B5 DUP3 PUSH2 0x1574 JUMP JUMPDEST PUSH1 0x5 DUP3 ADD SWAP1 POP SWAP2 SWAP1 POP JUMP JUMPDEST PUSH1 0x0 PUSH2 0x15CB DUP3 PUSH2 0x1551 JUMP JUMPDEST SWAP2 POP PUSH2 0x15D7 DUP3 DUP7 PUSH2 0x119A JUMP JUMPDEST SWAP2 POP PUSH2 0x15E2 DUP3 PUSH2 0x159D JUMP JUMPDEST SWAP2 POP PUSH2 0x15EE DUP3 DUP6 PUSH2 0x119A JUMP JUMPDEST SWAP2 POP PUSH2 0x15FA DUP3 DUP5 PUSH2 0x119A JUMP JUMPDEST SWAP2 POP DUP2 SWAP1 POP SWAP5 SWAP4 POP POP POP POP JUMP JUMPDEST PUSH32 0x5F00000000000000000000000000000000000000000000000000000000000000 PUSH1 0x0 DUP3 ADD MSTORE POP JUMP JUMPDEST PUSH1 0x0 PUSH2 0x163D PUSH1 0x1 DUP4 PUSH2 0x118F JUMP JUMPDEST SWAP2 POP PUSH2 0x1648 DUP3 PUSH2 0x1607 JUMP JUMPDEST PUSH1 0x1 DUP3 ADD SWAP1 POP SWAP2 SWAP1 POP JUMP JUMPDEST PUSH1 0x0 PUSH2 0x165F DUP3 DUP7 PUSH2 0x119A JUMP JUMPDEST SWAP2 POP PUSH2 0x166A DUP3 PUSH2 0x1630 JUMP JUMPDEST SWAP2 POP PUSH2 0x1676 DUP3 DUP6 PUSH2 0x119A JUMP JUMPDEST SWAP2 POP PUSH2 0x1681 DUP3 PUSH2 0x1630 JUMP JUMPDEST SWAP2 POP PUSH2 0x168D DUP3 DUP5 PUSH2 0x119A JUMP JUMPDEST SWAP2 POP DUP2 SWAP1 POP SWAP5 SWAP4 POP POP POP POP JUMP JUMPDEST PUSH32 0x435245415445205441424C452000000000000000000000000000000000000000 PUSH1 0x0 DUP3 ADD MSTORE POP JUMP JUMPDEST PUSH1 0x0 PUSH2 0x16D0 PUSH1 0xD DUP4 PUSH2 0x118F JUMP JUMPDEST SWAP2 POP PUSH2 0x16DB DUP3 PUSH2 0x169A JUMP JUMPDEST PUSH1 0xD DUP3 ADD SWAP1 POP SWAP2 SWAP1 POP JUMP JUMPDEST PUSH32 0x2800000000000000000000000000000000000000000000000000000000000000 PUSH1 0x0 DUP3 ADD MSTORE POP JUMP JUMPDEST PUSH1 0x0 PUSH2 0x171C PUSH1 0x1 DUP4 PUSH2 0x118F JUMP JUMPDEST SWAP2 POP PUSH2 0x1727 DUP3 PUSH2 0x16E6 JUMP JUMPDEST PUSH1 0x1 DUP3 ADD SWAP1 POP SWAP2 SWAP1 POP JUMP JUMPDEST PUSH32 0x2900000000000000000000000000000000000000000000000000000000000000 PUSH1 0x0 DUP3 ADD MSTORE POP JUMP JUMPDEST PUSH1 0x0 PUSH2 0x1768 PUSH1 0x1 DUP4 PUSH2 0x118F JUMP JUMPDEST SWAP2 POP PUSH2 0x1773 DUP3 PUSH2 0x1732 JUMP JUMPDEST PUSH1 0x1 DUP3 ADD SWAP1 POP SWAP2 SWAP1 POP JUMP JUMPDEST PUSH1 0x0 PUSH2 0x1789 DUP3 PUSH2 0x16C3 JUMP JUMPDEST SWAP2 POP PUSH2 0x1795 DUP3 DUP7 PUSH2 0x119A JUMP JUMPDEST SWAP2 POP PUSH2 0x17A0 DUP3 PUSH2 0x1630 JUMP JUMPDEST SWAP2 POP PUSH2 0x17AC DUP3 DUP6 PUSH2 0x119A JUMP JUMPDEST SWAP2 POP PUSH2 0x17B7 DUP3 PUSH2 0x170F JUMP JUMPDEST SWAP2 POP PUSH2 0x17C3 DUP3 DUP5 PUSH2 0x119A JUMP JUMPDEST SWAP2 POP PUSH2 0x17CE DUP3 PUSH2 0x175B JUMP JUMPDEST SWAP2 POP DUP2 SWAP1 POP SWAP5 SWAP4 POP POP POP POP JUMP JUMPDEST PUSH32 0x494E5345525420494E544F200000000000000000000000000000000000000000 PUSH1 0x0 DUP3 ADD MSTORE POP JUMP JUMPDEST PUSH1 0x0 PUSH2 0x1811 PUSH1 0xC DUP4 PUSH2 0x118F JUMP JUMPDEST SWAP2 POP PUSH2 0x181C DUP3 PUSH2 0x17DB JUMP JUMPDEST PUSH1 0xC DUP3 ADD SWAP1 POP SWAP2 SWAP1 POP JUMP JUMPDEST PUSH32 0x2956414C55455328000000000000000000000000000000000000000000000000 PUSH1 0x0 DUP3 ADD MSTORE POP JUMP JUMPDEST PUSH1 0x0 PUSH2 0x185D PUSH1 0x8 DUP4 PUSH2 0x118F JUMP JUMPDEST SWAP2 POP PUSH2 0x1868 DUP3 PUSH2 0x1827 JUMP JUMPDEST PUSH1 0x8 DUP3 ADD SWAP1 POP SWAP2 SWAP1 POP JUMP JUMPDEST PUSH1 0x0 PUSH2 0x187E DUP3 PUSH2 0x1804 JUMP JUMPDEST SWAP2 POP PUSH2 0x188A DUP3 DUP7 PUSH2 0x119A JUMP JUMPDEST SWAP2 POP PUSH2 0x1895 DUP3 PUSH2 0x170F JUMP JUMPDEST SWAP2 POP PUSH2 0x18A1 DUP3 DUP6 PUSH2 0x119A JUMP JUMPDEST SWAP2 POP PUSH2 0x18AC DUP3 PUSH2 0x1850 JUMP JUMPDEST SWAP2 POP PUSH2 0x18B8 DUP3 DUP5 PUSH2 0x119A JUMP JUMPDEST SWAP2 POP PUSH2 0x18C3 DUP3 PUSH2 0x175B JUMP JUMPDEST SWAP2 POP DUP2 SWAP1 POP SWAP5 SWAP4 POP POP POP POP JUMP INVALID LOG2 PUSH5 0x6970667358 0x22 SLT KECCAK256 PUSH21 0xBEDDCFCDC2B68AA08DB298BF30964CEE5819C3FD2E 0xEA CALLDATALOAD 0x29 PUSH1 0x26 0xAB GASLIMIT 0xEA RETURNDATASIZE 0xF6 PUSH5 0x736F6C6343 STOP ADDMOD EQ STOP CALLER "},"methodIdentifiers":{"createTable()":"b2a4c897","deleteFromTable(uint256)":"04bfc47f","getTableId()":"88e4f1cb","getTableName()":"5d5a33a2","insertIntoTable(uint256,string)":"f56ec1ed","onERC721Received(address,address,uint256,bytes)":"150b7a02","setAccessControl(address)":"19129e5a","updateTable(uint256,string)":"312fa457"}}}}}