{
  "_format": "hh-sol-artifact-1",
  "contractName": "Table",
  "sourceName": "contracts/Table.sol",
  "abi": [
    {
      "inputs": [
        {
          "internalType": "uint256",
          "name": "chainid",
          "type": "uint256"
        }
      ],
      "name": "ChainNotSupported",
      "type": "error"
    },
    {
      "inputs": [],
      "name": "createTable",
      "outputs": [],
      "stateMutability": "payable",
      "type": "function"
    },
    {
      "inputs": [
        {
          "internalType": "uint256",
          "name": "id",
          "type": "uint256"
        }
      ],
      "name": "deleteFromTable",
      "outputs": [],
      "stateMutability": "nonpayable",
      "type": "function"
    },
    {
      "inputs": [],
      "name": "getTableId",
      "outputs": [
        {
          "internalType": "uint256",
          "name": "",
          "type": "uint256"
        }
      ],
      "stateMutability": "view",
      "type": "function"
    },
    {
      "inputs": [],
      "name": "getTableName",
      "outputs": [
        {
          "internalType": "string",
          "name": "",
          "type": "string"
        }
      ],
      "stateMutability": "view",
      "type": "function"
    },
    {
      "inputs": [
        {
          "internalType": "uint256",
          "name": "id",
          "type": "uint256"
        },
        {
          "internalType": "string",
          "name": "val",
          "type": "string"
        }
      ],
      "name": "insertIntoTable",
      "outputs": [],
      "stateMutability": "nonpayable",
      "type": "function"
    },
    {
      "inputs": [
        {
          "internalType": "address",
          "name": "",
          "type": "address"
        },
        {
          "internalType": "address",
          "name": "",
          "type": "address"
        },
        {
          "internalType": "uint256",
          "name": "",
          "type": "uint256"
        },
        {
          "internalType": "bytes",
          "name": "",
          "type": "bytes"
        }
      ],
      "name": "onERC721Received",
      "outputs": [
        {
          "internalType": "bytes4",
          "name": "",
          "type": "bytes4"
        }
      ],
      "stateMutability": "nonpayable",
      "type": "function"
    },
    {
      "inputs": [
        {
          "internalType": "address",
          "name": "controller",
          "type": "address"
        }
      ],
      "name": "setAccessControl",
      "outputs": [],
      "stateMutability": "nonpayable",
      "type": "function"
    },
    {
      "inputs": [
        {
          "internalType": "uint256",
          "name": "id",
          "type": "uint256"
        },
        {
          "internalType": "string",
          "name": "val",
          "type": "string"
        }
      ],
      "name": "updateTable",
      "outputs": [],
      "stateMutability": "nonpayable",
      "type": "function"
    }
  ],
  "bytecode": "0x608060405234801561001057600080fd5b50611906806100206000396000f3fe60806040526004361061007b5760003560e01c80635d5a33a21161004e5780635d5a33a21461013857806388e4f1cb14610163578063b2a4c8971461018e578063f56ec1ed146101985761007b565b806304bfc47f14610080578063150b7a02146100a957806319129e5a146100e6578063312fa4571461010f575b600080fd5b34801561008c57600080fd5b506100a760048036038101906100a29190610cca565b6101c1565b005b3480156100b557600080fd5b506100d060048036038101906100cb9190610e9b565b6102aa565b6040516100dd9190610f59565b60405180910390f35b3480156100f257600080fd5b5061010d60048036038101906101089190610f74565b6102be565b005b34801561011b57600080fd5b5061013660048036038101906101319190611042565b610339565b005b34801561014457600080fd5b5061014d610451565b60405161015a919061111d565b60405180910390f35b34801561016f57600080fd5b50610178610499565b604051610185919061114e565b60405180910390f35b6101966104a2565b005b3480156101a457600080fd5b506101bf60048036038101906101ba9190611042565b6105a2565b005b60006101cc826106c6565b6040516020016101dc91906111cb565b60405160208183030381529060405290506101f5610794565b73ffffffffffffffffffffffffffffffffffffffff1663377af0da306000546102566040518060400160405280600881526020017f6d795f7461626c6500000000000000000000000000000000000000000000000081525060005487610994565b6040518463ffffffff1660e01b815260040161027493929190611200565b600060405180830381600087803b15801561028e57600080fd5b505af11580156102a2573d6000803e3d6000fd5b505050505050565b600063150b7a0260e01b9050949350505050565b6102c6610794565b73ffffffffffffffffffffffffffffffffffffffff16638bb0ab9730600054846040518463ffffffff1660e01b81526004016103049392919061123e565b600060405180830381600087803b15801561031e57600080fd5b505af1158015610332573d6000803e3d6000fd5b5050505050565b6000610344826109d0565b604051602001610354919061129b565b60405160208183030381529060405290506000610370846106c6565b60405160200161038091906111cb565b6040516020818303038152906040529050610399610794565b73ffffffffffffffffffffffffffffffffffffffff1663377af0da306000546103fb6040518060400160405280600881526020017f6d795f7461626c6500000000000000000000000000000000000000000000000081525060005488886109f9565b6040518463ffffffff1660e01b815260040161041993929190611200565b600060405180830381600087803b15801561043357600080fd5b505af1158015610447573d6000803e3d6000fd5b5050505050505050565b60606104946040518060400160405280600881526020017f6d795f7461626c65000000000000000000000000000000000000000000000000815250600054610a7a565b905090565b60008054905090565b6104aa610794565b73ffffffffffffffffffffffffffffffffffffffff1663a15ab08d3061053a6040518060400160405280601f81526020017f696420696e7465676572207072696d617279206b65792c76616c2074657874008152506040518060400160405280600881526020017f6d795f7461626c65000000000000000000000000000000000000000000000000815250610ab8565b6040518363ffffffff1660e01b81526004016105579291906112c1565b6020604051808303816000875af1158015610576573d6000803e3d6000fd5b505050506040513d601f19601f8201168201806040525081019061059a9190611306565b600081905550565b6105aa610794565b73ffffffffffffffffffffffffffffffffffffffff1663377af0da306000546106726040518060400160405280600881526020017f6d795f7461626c650000000000000000000000000000000000000000000000008152506000546040518060400160405280600681526020017f69642c76616c00000000000000000000000000000000000000000000000000008152506106448a6106c6565b61064d8a6109d0565b60405160200161065e929190611359565b604051602081830303815290604052610aee565b6040518463ffffffff1660e01b815260040161069093929190611200565b600060405180830381600087803b1580156106aa57600080fd5b505af11580156106be573d6000803e3d6000fd5b505050505050565b6060600060016106d584610b2d565b01905060008167ffffffffffffffff8111156106f4576106f3610d70565b5b6040519080825280601f01601f1916602001820160405280156107265781602001600182028036833780820191505090505b509050600082602001820190505b600115610789578080600190039150507f3031323334353637383961626364656600000000000000000000000000000000600a86061a8153600a858161077d5761077c61138c565b5b04945060008503610734575b819350505050919050565b6000600146036107ba5773012969f7e3439a9b04025b5a049eb9bad82a8c129050610991565b600a46036107de5773fad44bf5b843de943a09d4f3e84949a11d3aa3e69050610991565b61a4b1460361080357739abd75e8640871a5a20d3b4ee6330a04c962affd9050610991565b61a4ba460361082857731a22854c5b1642760a827f20137a67930ae108d29050610991565b6089460361084c57735c4e6a9e5c1e1bf445a062006faf19ea6c49afea9050610991565b61013a4603610871577359ef8bf2d6c102b4c42aef9189e1a9f0abfd652d9050610991565b62aa36a746036108975773c50c62498448acc8dbde43da77f8d5d2e2c7597d9050610991565b62aa37dc46036108bd577368a2f4423ad3bf5139db563cf3bc80aa09ed70799050610991565b62066eee46036108e35773223a74b8323914afdc3ff1e5005564dc17231d6e9050610991565b62013881460361090957734b48841d4b32c4650e4abc117a03fe8b51f38f689050610991565b6204cb2f460361092f5773030bcf3d50cad04c2e57391b12740982a93086219050610991565b617a6946036109545773e7f1725e7734ce288f8367e1bb143e90bb3f05129050610991565b466040517f264e42cf000000000000000000000000000000000000000000000000000000008152600401610988919061114e565b60405180910390fd5b90565b606060006109a28585610a7a565b905080836040516020016109b7929190611453565b6040516020818303038152906040529150509392505050565b6060816040516020016109e391906114d9565b6040516020818303038152906040529050919050565b60606000610a078686610a7a565b90506000604051806020016040528060008152509050600084511115610a4a5783604051602001610a389190611506565b60405160208183030381529060405290505b818582604051602001610a5f939291906115c0565b60405160208183030381529060405292505050949350505050565b606082610a86466106c6565b610a8f846106c6565b604051602001610aa193929190611653565b604051602081830303815290604052905092915050565b606081610ac4466106c6565b84604051602001610ad79392919061177e565b604051602081830303815290604052905092915050565b60606000610afc8686610a7a565b9050808484604051602001610b1393929190611873565b604051602081830303815290604052915050949350505050565b600080600090507a184f03e93ff9f4daa797ed6e38ed64bf6a1f0100000000000000008310610b8b577a184f03e93ff9f4daa797ed6e38ed64bf6a1f0100000000000000008381610b8157610b8061138c565b5b0492506040810190505b6d04ee2d6d415b85acef81000000008310610bc8576d04ee2d6d415b85acef81000000008381610bbe57610bbd61138c565b5b0492506020810190505b662386f26fc100008310610bf757662386f26fc100008381610bed57610bec61138c565b5b0492506010810190505b6305f5e1008310610c20576305f5e1008381610c1657610c1561138c565b5b0492506008810190505b6127108310610c45576127108381610c3b57610c3a61138c565b5b0492506004810190505b60648310610c685760648381610c5e57610c5d61138c565b5b0492506002810190505b600a8310610c77576001810190505b80915050919050565b6000604051905090565b600080fd5b600080fd5b6000819050919050565b610ca781610c94565b8114610cb257600080fd5b50565b600081359050610cc481610c9e565b92915050565b600060208284031215610ce057610cdf610c8a565b5b6000610cee84828501610cb5565b91505092915050565b600073ffffffffffffffffffffffffffffffffffffffff82169050919050565b6000610d2282610cf7565b9050919050565b610d3281610d17565b8114610d3d57600080fd5b50565b600081359050610d4f81610d29565b92915050565b600080fd5b600080fd5b6000601f19601f8301169050919050565b7f4e487b7100000000000000000000000000000000000000000000000000000000600052604160045260246000fd5b610da882610d5f565b810181811067ffffffffffffffff82111715610dc757610dc6610d70565b5b80604052505050565b6000610dda610c80565b9050610de68282610d9f565b919050565b600067ffffffffffffffff821115610e0657610e05610d70565b5b610e0f82610d5f565b9050602081019050919050565b82818337600083830152505050565b6000610e3e610e3984610deb565b610dd0565b905082815260208101848484011115610e5a57610e59610d5a565b5b610e65848285610e1c565b509392505050565b600082601f830112610e8257610e81610d55565b5b8135610e92848260208601610e2b565b91505092915050565b60008060008060808587031215610eb557610eb4610c8a565b5b6000610ec387828801610d40565b9450506020610ed487828801610d40565b9350506040610ee587828801610cb5565b925050606085013567ffffffffffffffff811115610f0657610f05610c8f565b5b610f1287828801610e6d565b91505092959194509250565b60007fffffffff0000000000000000000000000000000000000000000000000000000082169050919050565b610f5381610f1e565b82525050565b6000602082019050610f6e6000830184610f4a565b92915050565b600060208284031215610f8a57610f89610c8a565b5b6000610f9884828501610d40565b91505092915050565b600067ffffffffffffffff821115610fbc57610fbb610d70565b5b610fc582610d5f565b9050602081019050919050565b6000610fe5610fe084610fa1565b610dd0565b90508281526020810184848401111561100157611000610d5a565b5b61100c848285610e1c565b509392505050565b600082601f83011261102957611028610d55565b5b8135611039848260208601610fd2565b91505092915050565b6000806040838503121561105957611058610c8a565b5b600061106785828601610cb5565b925050602083013567ffffffffffffffff81111561108857611087610c8f565b5b61109485828601611014565b9150509250929050565b600081519050919050565b600082825260208201905092915050565b60005b838110156110d85780820151818401526020810190506110bd565b60008484015250505050565b60006110ef8261109e565b6110f981856110a9565b93506111098185602086016110ba565b61111281610d5f565b840191505092915050565b6000602082019050818103600083015261113781846110e4565b905092915050565b61114881610c94565b82525050565b6000602082019050611163600083018461113f565b92915050565b7f69643d0000000000000000000000000000000000000000000000000000000000815250565b600081905092915050565b60006111a58261109e565b6111af818561118f565b93506111bf8185602086016110ba565b80840191505092915050565b60006111d682611169565b6003820191506111e6828461119a565b915081905092915050565b6111fa81610d17565b82525050565b600060608201905061121560008301866111f1565b611222602083018561113f565b818103604083015261123481846110e4565b9050949350505050565b600060608201905061125360008301866111f1565b611260602083018561113f565b61126d60408301846111f1565b949350505050565b7f76616c3d00000000000000000000000000000000000000000000000000000000815250565b60006112a682611275565b6004820191506112b6828461119a565b915081905092915050565b60006040820190506112d660008301856111f1565b81810360208301526112e881846110e4565b90509392505050565b60008151905061130081610c9e565b92915050565b60006020828403121561131c5761131b610c8a565b5b600061132a848285016112f1565b91505092915050565b7f2c00000000000000000000000000000000000000000000000000000000000000815250565b6000611365828561119a565b915061137082611333565b600182019150611380828461119a565b91508190509392505050565b7f4e487b7100000000000000000000000000000000000000000000000000000000600052601260045260246000fd5b7f44454c4554452046524f4d200000000000000000000000000000000000000000600082015250565b60006113f1600c8361118f565b91506113fc826113bb565b600c82019050919050565b7f2057484552452000000000000000000000000000000000000000000000000000600082015250565b600061143d60078361118f565b915061144882611407565b600782019050919050565b600061145e826113e4565b915061146a828561119a565b915061147582611430565b9150611481828461119a565b91508190509392505050565b7f2700000000000000000000000000000000000000000000000000000000000000600082015250565b60006114c360018361118f565b91506114ce8261148d565b600182019050919050565b60006114e4826114b6565b91506114f0828461119a565b91506114fb826114b6565b915081905092915050565b600061151182611430565b915061151d828461119a565b915081905092915050565b7f5550444154452000000000000000000000000000000000000000000000000000600082015250565b600061155e60078361118f565b915061156982611528565b600782019050919050565b7f2053455420000000000000000000000000000000000000000000000000000000600082015250565b60006115aa60058361118f565b91506115b582611574565b600582019050919050565b60006115cb82611551565b91506115d7828661119a565b91506115e28261159d565b91506115ee828561119a565b91506115fa828461119a565b9150819050949350505050565b7f5f00000000000000000000000000000000000000000000000000000000000000600082015250565b600061163d60018361118f565b915061164882611607565b600182019050919050565b600061165f828661119a565b915061166a82611630565b9150611676828561119a565b915061168182611630565b915061168d828461119a565b9150819050949350505050565b7f435245415445205441424c452000000000000000000000000000000000000000600082015250565b60006116d0600d8361118f565b91506116db8261169a565b600d82019050919050565b7f2800000000000000000000000000000000000000000000000000000000000000600082015250565b600061171c60018361118f565b9150611727826116e6565b600182019050919050565b7f2900000000000000000000000000000000000000000000000000000000000000600082015250565b600061176860018361118f565b915061177382611732565b600182019050919050565b6000611789826116c3565b9150611795828661119a565b91506117a082611630565b91506117ac828561119a565b91506117b78261170f565b91506117c3828461119a565b91506117ce8261175b565b9150819050949350505050565b7f494e5345525420494e544f200000000000000000000000000000000000000000600082015250565b6000611811600c8361118f565b915061181c826117db565b600c82019050919050565b7f2956414c55455328000000000000000000000000000000000000000000000000600082015250565b600061185d60088361118f565b915061186882611827565b600882019050919050565b600061187e82611804565b915061188a828661119a565b91506118958261170f565b91506118a1828561119a565b91506118ac82611850565b91506118b8828461119a565b91506118c38261175b565b915081905094935050505056fea264697066735822122074beddcfcdc2b68aa08db298bf30964cee5819c3fd2eea35296026ab45ea3df664736f6c63430008140033",
  "linkReferences": {},
  "deployedLinkReferences": {}
}