{
    "contractName": "FileStorage",
    "abi": [
        {
            "inputs": [
                {
                    "internalType": "address",
                    "name": "",
                    "type": "address"
                },
                {
                    "internalType": "uint256",
                    "name": "",
                    "type": "uint256"
                }
            ],
            "name": "userFiles",
            "outputs": [
                {
                    "internalType": "string",
                    "name": "cid",
                    "type": "string"
                },
                {
                    "internalType": "address",
                    "name": "userAddress",
                    "type": "address"
                }
            ],
            "stateMutability": "view",
            "type": "function",
            "constant": true
        },
        {
            "inputs": [
                {
                    "internalType": "uint256",
                    "name": "",
                    "type": "uint256"
                }
            ],
            "name": "users",
            "outputs": [
                {
                    "internalType": "address",
                    "name": "",
                    "type": "address"
                }
            ],
            "stateMutability": "view",
            "type": "function",
            "constant": true
        },
        {
            "inputs": [
                {
                    "internalType": "string",
                    "name": "cid",
                    "type": "string"
                },
                {
                    "internalType": "address",
                    "name": "userAddress",
                    "type": "address"
                }
            ],
            "name": "storeCIDAndUserAddress",
            "outputs": [],
            "stateMutability": "nonpayable",
            "type": "function"
        },
        {
            "inputs": [
                {
                    "internalType": "address",
                    "name": "userAddress",
                    "type": "address"
                }
            ],
            "name": "getUserFiles",
            "outputs": [
                {
                    "components": [
                        {
                            "internalType": "string",
                            "name": "cid",
                            "type": "string"
                        },
                        {
                            "internalType": "address",
                            "name": "userAddress",
                            "type": "address"
                        }
                    ],
                    "internalType": "struct FileStorage.FileData[]",
                    "name": "",
                    "type": "tuple[]"
                }
            ],
            "stateMutability": "view",
            "type": "function",
            "constant": true
        },
        {
            "inputs": [],
            "name": "getAllFiles",
            "outputs": [
                {
                    "components": [
                        {
                            "internalType": "string",
                            "name": "cid",
                            "type": "string"
                        },
                        {
                            "internalType": "address",
                            "name": "userAddress",
                            "type": "address"
                        }
                    ],
                    "internalType": "struct FileStorage.FileData[][]",
                    "name": "",
                    "type": "tuple[][]"
                }
            ],
            "stateMutability": "view",
            "type": "function",
            "constant": true
        },
        {
            "inputs": [],
            "name": "getNumberOfUsers",
            "outputs": [
                {
                    "internalType": "uint256",
                    "name": "",
                    "type": "uint256"
                }
            ],
            "stateMutability": "view",
            "type": "function",
            "constant": true
        },
        {
            "inputs": [
                {
                    "internalType": "uint256",
                    "name": "index",
                    "type": "uint256"
                }
            ],
            "name": "getUserAtIndex",
            "outputs": [
                {
                    "internalType": "address",
                    "name": "",
                    "type": "address"
                }
            ],
            "stateMutability": "view",
            "type": "function",
            "constant": true
        }
    ],
    "bytecode": "0x6080604052348015600f57600080fd5b506113238061001f6000396000f3fe608060405234801561001057600080fd5b506004361061007d5760003560e01c8063718f38a61161005b578063718f38a614610100578063a913c46414610131578063ff24b5d51461014d578063ffcc7bbf1461016b5761007d565b80631fc3792214610082578063365b98b2146100b25780634d009288146100e2575b600080fd5b61009c6004803603810190610097919061091b565b61019b565b6040516100a99190610ae6565b60405180910390f35b6100cc60048036038101906100c79190610b3e565b610320565b6040516100d99190610b7a565b60405180910390f35b6100ea61035f565b6040516100f79190610ba4565b60405180910390f35b61011a60048036038101906101159190610bbf565b61036c565b604051610128929190610c49565b60405180910390f35b61014b60048036038101906101469190610dae565b610455565b005b6101556105f7565b6040516101629190610f52565b60405180910390f35b61018560048036038101906101809190610b3e565b61081a565b6040516101929190610b7a565b60405180910390f35b60606000808373ffffffffffffffffffffffffffffffffffffffff1673ffffffffffffffffffffffffffffffffffffffff168152602001908152602001600020805480602002602001604051908101604052809291908181526020016000905b82821015610315578382906000526020600020906002020160405180604001604052908160008201805461022e90610fa3565b80601f016020809104026020016040519081016040528092919081815260200182805461025a90610fa3565b80156102a75780601f1061027c576101008083540402835291602001916102a7565b820191906000526020600020905b81548152906001019060200180831161028a57829003601f168201915b505050505081526020016001820160009054906101000a900473ffffffffffffffffffffffffffffffffffffffff1673ffffffffffffffffffffffffffffffffffffffff1673ffffffffffffffffffffffffffffffffffffffff1681525050815260200190600101906101fb565b505050509050919050565b6001818154811061033057600080fd5b906000526020600020016000915054906101000a900473ffffffffffffffffffffffffffffffffffffffff1681565b6000600180549050905090565b6000602052816000526040600020818154811061038857600080fd5b9060005260206000209060020201600091509150508060000180546103ac90610fa3565b80601f01602080910402602001604051908101604052809291908181526020018280546103d890610fa3565b80156104255780601f106103fa57610100808354040283529160200191610425565b820191906000526020600020905b81548152906001019060200180831161040857829003601f168201915b5050505050908060010160009054906101000a900473ffffffffffffffffffffffffffffffffffffffff16905082565b6000808273ffffffffffffffffffffffffffffffffffffffff1673ffffffffffffffffffffffffffffffffffffffff16815260200190815260200160002060405180604001604052808481526020018373ffffffffffffffffffffffffffffffffffffffff16815250908060018154018082558091505060019003906000526020600020906002020160009091909190915060008201518160000190816104fc9190611180565b5060208201518160010160006101000a81548173ffffffffffffffffffffffffffffffffffffffff021916908373ffffffffffffffffffffffffffffffffffffffff160217905550505060016000808373ffffffffffffffffffffffffffffffffffffffff1673ffffffffffffffffffffffffffffffffffffffff16815260200190815260200160002080549050036105f3576001819080600181540180825580915050600190039060005260206000200160009091909190916101000a81548173ffffffffffffffffffffffffffffffffffffffff021916908373ffffffffffffffffffffffffffffffffffffffff1602179055505b5050565b6060600061060361035f565b905060008167ffffffffffffffff81111561062157610620610c83565b5b60405190808252806020026020018201604052801561065457816020015b606081526020019060019003908161063f5790505b50905060005b828110156108115760008061066e8361081a565b73ffffffffffffffffffffffffffffffffffffffff1673ffffffffffffffffffffffffffffffffffffffff168152602001908152602001600020805480602002602001604051908101604052809291908181526020016000905b828210156107e257838290600052602060002090600202016040518060400160405290816000820180546106fb90610fa3565b80601f016020809104026020016040519081016040528092919081815260200182805461072790610fa3565b80156107745780601f1061074957610100808354040283529160200191610774565b820191906000526020600020905b81548152906001019060200180831161075757829003601f168201915b505050505081526020016001820160009054906101000a900473ffffffffffffffffffffffffffffffffffffffff1673ffffffffffffffffffffffffffffffffffffffff1673ffffffffffffffffffffffffffffffffffffffff1681525050815260200190600101906106c8565b505050508282815181106107f9576107f8611252565b5b6020026020010181905250808060010191505061065a565b50809250505090565b60006001805490508210610863576040517f08c379a000000000000000000000000000000000000000000000000000000000815260040161085a906112cd565b60405180910390fd5b6001828154811061087757610876611252565b5b9060005260206000200160009054906101000a900473ffffffffffffffffffffffffffffffffffffffff169050919050565b6000604051905090565b600080fd5b600080fd5b600073ffffffffffffffffffffffffffffffffffffffff82169050919050565b60006108e8826108bd565b9050919050565b6108f8816108dd565b811461090357600080fd5b50565b600081359050610915816108ef565b92915050565b600060208284031215610931576109306108b3565b5b600061093f84828501610906565b91505092915050565b600081519050919050565b600082825260208201905092915050565b6000819050602082019050919050565b600081519050919050565b600082825260208201905092915050565b60005b838110156109ae578082015181840152602081019050610993565b60008484015250505050565b6000601f19601f8301169050919050565b60006109d682610974565b6109e0818561097f565b93506109f0818560208601610990565b6109f9816109ba565b840191505092915050565b610a0d816108dd565b82525050565b60006040830160008301518482036000860152610a3082826109cb565b9150506020830151610a456020860182610a04565b508091505092915050565b6000610a5c8383610a13565b905092915050565b6000602082019050919050565b6000610a7c82610948565b610a868185610953565b935083602082028501610a9885610964565b8060005b85811015610ad45784840389528151610ab58582610a50565b9450610ac083610a64565b925060208a01995050600181019050610a9c565b50829750879550505050505092915050565b60006020820190508181036000830152610b008184610a71565b905092915050565b6000819050919050565b610b1b81610b08565b8114610b2657600080fd5b50565b600081359050610b3881610b12565b92915050565b600060208284031215610b5457610b536108b3565b5b6000610b6284828501610b29565b91505092915050565b610b74816108dd565b82525050565b6000602082019050610b8f6000830184610b6b565b92915050565b610b9e81610b08565b82525050565b6000602082019050610bb96000830184610b95565b92915050565b60008060408385031215610bd657610bd56108b3565b5b6000610be485828601610906565b9250506020610bf585828601610b29565b9150509250929050565b600082825260208201905092915050565b6000610c1b82610974565b610c258185610bff565b9350610c35818560208601610990565b610c3e816109ba565b840191505092915050565b60006040820190508181036000830152610c638185610c10565b9050610c726020830184610b6b565b9392505050565b600080fd5b600080fd5b7f4e487b7100000000000000000000000000000000000000000000000000000000600052604160045260246000fd5b610cbb826109ba565b810181811067ffffffffffffffff82111715610cda57610cd9610c83565b5b80604052505050565b6000610ced6108a9565b9050610cf98282610cb2565b919050565b600067ffffffffffffffff821115610d1957610d18610c83565b5b610d22826109ba565b9050602081019050919050565b82818337600083830152505050565b6000610d51610d4c84610cfe565b610ce3565b905082815260208101848484011115610d6d57610d6c610c7e565b5b610d78848285610d2f565b509392505050565b600082601f830112610d9557610d94610c79565b5b8135610da5848260208601610d3e565b91505092915050565b60008060408385031215610dc557610dc46108b3565b5b600083013567ffffffffffffffff811115610de357610de26108b8565b5b610def85828601610d80565b9250506020610e0085828601610906565b9150509250929050565b600081519050919050565b600082825260208201905092915050565b6000819050602082019050919050565b600082825260208201905092915050565b6000610e5282610948565b610e5c8185610e36565b935083602082028501610e6e85610964565b8060005b85811015610eaa5784840389528151610e8b8582610a50565b9450610e9683610a64565b925060208a01995050600181019050610e72565b50829750879550505050505092915050565b6000610ec88383610e47565b905092915050565b6000602082019050919050565b6000610ee882610e0a565b610ef28185610e15565b935083602082028501610f0485610e26565b8060005b85811015610f405784840389528151610f218582610ebc565b9450610f2c83610ed0565b925060208a01995050600181019050610f08565b50829750879550505050505092915050565b60006020820190508181036000830152610f6c8184610edd565b905092915050565b7f4e487b7100000000000000000000000000000000000000000000000000000000600052602260045260246000fd5b60006002820490506001821680610fbb57607f821691505b602082108103610fce57610fcd610f74565b5b50919050565b60008190508160005260206000209050919050565b60006020601f8301049050919050565b600082821b905092915050565b6000600883026110367fffffffffffffffffffffffffffffffffffffffffffffffffffffffffffffffff82610ff9565b6110408683610ff9565b95508019841693508086168417925050509392505050565b6000819050919050565b600061107d61107861107384610b08565b611058565b610b08565b9050919050565b6000819050919050565b61109783611062565b6110ab6110a382611084565b848454611006565b825550505050565b600090565b6110c06110b3565b6110cb81848461108e565b505050565b5b818110156110ef576110e46000826110b8565b6001810190506110d1565b5050565b601f8211156111345761110581610fd4565b61110e84610fe9565b8101602085101561111d578190505b61113161112985610fe9565b8301826110d0565b50505b505050565b600082821c905092915050565b600061115760001984600802611139565b1980831691505092915050565b60006111708383611146565b9150826002028217905092915050565b61118982610974565b67ffffffffffffffff8111156111a2576111a1610c83565b5b6111ac8254610fa3565b6111b78282856110f3565b600060209050601f8311600181146111ea57600084156111d8578287015190505b6111e28582611164565b86555061124a565b601f1984166111f886610fd4565b60005b82811015611220578489015182556001820191506020850194506020810190506111fb565b8683101561123d5784890151611239601f891682611146565b8355505b6001600288020188555050505b505050505050565b7f4e487b7100000000000000000000000000000000000000000000000000000000600052603260045260246000fd5b7f496e646578206f7574206f6620626f756e647300000000000000000000000000600082015250565b60006112b7601383610bff565b91506112c282611281565b602082019050919050565b600060208201905081810360008301526112e6816112aa565b905091905056fea264697066735822122098056b83798245c2e34b71094b4e66233a76036117ea0b8cd7ecb89eda334e8364736f6c63430008190033",
    "immutableReferences": {},
    "source": "// SPDX-License-Identifier: MIT \npragma solidity ^0.8.0;\n\ncontract FileStorage {\n    struct FileData {\n        string cid;\n        address userAddress;\n    }\n\n    mapping(address => FileData[]) public userFiles;\n    address[] public users; // Array to store user addresses\n\n    function storeCIDAndUserAddress(string memory cid, address userAddress) public {\n        userFiles[userAddress].push(FileData(cid, userAddress));\n        if (userFiles[userAddress].length == 1) {\n            users.push(userAddress); // Add user address to the array if it's the first file for that user\n        }\n    }\n\n    function getUserFiles(address userAddress) public view returns (FileData[] memory) {\n        return userFiles[userAddress];\n    }\n\n    function getAllFiles() public view returns (FileData[][] memory) {\n        uint256 totalUsers = getNumberOfUsers();\n        FileData[][] memory allFiles = new FileData[][](totalUsers);\n\n        for (uint256 i = 0; i < totalUsers; i++) {\n            allFiles[i] = userFiles[getUserAtIndex(i)];\n        }\n\n        return allFiles;\n    }\n\n    function getNumberOfUsers() public view returns (uint256) {\n        return users.length; // Return the length of the users array\n    }\n\n    function getUserAtIndex(uint256 index) public view returns (address) {\n        require(index < users.length, \"Index out of bounds\"); // Ensure index is within bounds\n        return users[index];\n    }\n}",
    "sourcePath": "/Users/patrik/Desktop/bc/greeter/contracts/FileStorage.sol",
    "compiler": {
        "name": "solc",
        "version": "0.8.25+commit.b61c2a91.Emscripten.clang"
    },
    "schemaVersion": "3.4.16",
    "updatedAt": "2024-04-01T10:52:31.032Z",
    "networkType": "ethereum",
    "devdoc": {
        "kind": "dev",
        "methods": {},
        "version": 1
    },
    "userdoc": {
        "kind": "user",
        "methods": {},
        "version": 1
    }
}