{
  "contractName": "UserAccessControl",
  "abi": [
    {
      "inputs": [],
      "stateMutability": "nonpayable",
      "type": "constructor"
    },
    {
      "inputs": [],
      "name": "AccessControlBadConfirmation",
      "type": "error"
    },
    {
      "inputs": [
        {
          "internalType": "address",
          "name": "account",
          "type": "address"
        },
        {
          "internalType": "bytes32",
          "name": "neededRole",
          "type": "bytes32"
        }
      ],
      "name": "AccessControlUnauthorizedAccount",
      "type": "error"
    },
    {
      "inputs": [
        {
          "internalType": "address",
          "name": "owner",
          "type": "address"
        }
      ],
      "name": "OwnableInvalidOwner",
      "type": "error"
    },
    {
      "inputs": [
        {
          "internalType": "address",
          "name": "account",
          "type": "address"
        }
      ],
      "name": "OwnableUnauthorizedAccount",
      "type": "error"
    },
    {
      "anonymous": false,
      "inputs": [
        {
          "indexed": true,
          "internalType": "address",
          "name": "previousOwner",
          "type": "address"
        },
        {
          "indexed": true,
          "internalType": "address",
          "name": "newOwner",
          "type": "address"
        }
      ],
      "name": "OwnershipTransferred",
      "type": "event"
    },
    {
      "anonymous": false,
      "inputs": [
        {
          "indexed": true,
          "internalType": "bytes32",
          "name": "role",
          "type": "bytes32"
        },
        {
          "indexed": true,
          "internalType": "bytes32",
          "name": "previousAdminRole",
          "type": "bytes32"
        },
        {
          "indexed": true,
          "internalType": "bytes32",
          "name": "newAdminRole",
          "type": "bytes32"
        }
      ],
      "name": "RoleAdminChanged",
      "type": "event"
    },
    {
      "anonymous": false,
      "inputs": [
        {
          "indexed": true,
          "internalType": "bytes32",
          "name": "role",
          "type": "bytes32"
        },
        {
          "indexed": true,
          "internalType": "address",
          "name": "account",
          "type": "address"
        },
        {
          "indexed": true,
          "internalType": "address",
          "name": "sender",
          "type": "address"
        }
      ],
      "name": "RoleGranted",
      "type": "event"
    },
    {
      "anonymous": false,
      "inputs": [
        {
          "indexed": true,
          "internalType": "bytes32",
          "name": "role",
          "type": "bytes32"
        },
        {
          "indexed": true,
          "internalType": "address",
          "name": "account",
          "type": "address"
        },
        {
          "indexed": true,
          "internalType": "address",
          "name": "sender",
          "type": "address"
        }
      ],
      "name": "RoleRevoked",
      "type": "event"
    },
    {
      "inputs": [],
      "name": "DEFAULT_ADMIN_ROLE",
      "outputs": [
        {
          "internalType": "bytes32",
          "name": "",
          "type": "bytes32"
        }
      ],
      "stateMutability": "view",
      "type": "function",
      "constant": true
    },
    {
      "inputs": [],
      "name": "MINTER_ROLE",
      "outputs": [
        {
          "internalType": "bytes32",
          "name": "",
          "type": "bytes32"
        }
      ],
      "stateMutability": "view",
      "type": "function",
      "constant": true
    },
    {
      "inputs": [
        {
          "internalType": "bytes32",
          "name": "role",
          "type": "bytes32"
        }
      ],
      "name": "getRoleAdmin",
      "outputs": [
        {
          "internalType": "bytes32",
          "name": "",
          "type": "bytes32"
        }
      ],
      "stateMutability": "view",
      "type": "function",
      "constant": true
    },
    {
      "inputs": [
        {
          "internalType": "bytes32",
          "name": "role",
          "type": "bytes32"
        },
        {
          "internalType": "address",
          "name": "account",
          "type": "address"
        }
      ],
      "name": "grantRole",
      "outputs": [],
      "stateMutability": "nonpayable",
      "type": "function"
    },
    {
      "inputs": [
        {
          "internalType": "bytes32",
          "name": "role",
          "type": "bytes32"
        },
        {
          "internalType": "address",
          "name": "account",
          "type": "address"
        }
      ],
      "name": "hasRole",
      "outputs": [
        {
          "internalType": "bool",
          "name": "",
          "type": "bool"
        }
      ],
      "stateMutability": "view",
      "type": "function",
      "constant": true
    },
    {
      "inputs": [],
      "name": "owner",
      "outputs": [
        {
          "internalType": "address",
          "name": "",
          "type": "address"
        }
      ],
      "stateMutability": "view",
      "type": "function",
      "constant": true
    },
    {
      "inputs": [],
      "name": "renounceOwnership",
      "outputs": [],
      "stateMutability": "nonpayable",
      "type": "function"
    },
    {
      "inputs": [
        {
          "internalType": "bytes32",
          "name": "role",
          "type": "bytes32"
        },
        {
          "internalType": "address",
          "name": "callerConfirmation",
          "type": "address"
        }
      ],
      "name": "renounceRole",
      "outputs": [],
      "stateMutability": "nonpayable",
      "type": "function"
    },
    {
      "inputs": [
        {
          "internalType": "bytes32",
          "name": "role",
          "type": "bytes32"
        },
        {
          "internalType": "address",
          "name": "account",
          "type": "address"
        }
      ],
      "name": "revokeRole",
      "outputs": [],
      "stateMutability": "nonpayable",
      "type": "function"
    },
    {
      "inputs": [
        {
          "internalType": "bytes4",
          "name": "interfaceId",
          "type": "bytes4"
        }
      ],
      "name": "supportsInterface",
      "outputs": [
        {
          "internalType": "bool",
          "name": "",
          "type": "bool"
        }
      ],
      "stateMutability": "view",
      "type": "function",
      "constant": true
    },
    {
      "inputs": [
        {
          "internalType": "address",
          "name": "newOwner",
          "type": "address"
        }
      ],
      "name": "transferOwnership",
      "outputs": [],
      "stateMutability": "nonpayable",
      "type": "function"
    },
    {
      "inputs": [
        {
          "internalType": "address",
          "name": "user",
          "type": "address"
        }
      ],
      "name": "grantMinterRole",
      "outputs": [],
      "stateMutability": "nonpayable",
      "type": "function"
    },
    {
      "inputs": [
        {
          "internalType": "address",
          "name": "user",
          "type": "address"
        }
      ],
      "name": "revokeMinterRole",
      "outputs": [],
      "stateMutability": "nonpayable",
      "type": "function"
    },
    {
      "inputs": [
        {
          "internalType": "address",
          "name": "user",
          "type": "address"
        }
      ],
      "name": "isMinter",
      "outputs": [
        {
          "internalType": "bool",
          "name": "canActivate",
          "type": "bool"
        }
      ],
      "stateMutability": "view",
      "type": "function",
      "constant": true
    },
    {
      "inputs": [],
      "name": "getOwner",
      "outputs": [
        {
          "internalType": "address",
          "name": "",
          "type": "address"
        }
      ],
      "stateMutability": "view",
      "type": "function",
      "constant": true
    }
  ],
  "bytecode": "0x608060405234801561001057600080fd5b5033600073ffffffffffffffffffffffffffffffffffffffff168173ffffffffffffffffffffffffffffffffffffffff16036100845760006040517f1e4fbdf700000000000000000000000000000000000000000000000000000000815260040161007b9190610353565b60405180910390fd5b610093816100de60201b60201c565b506100a76000801b336101a260201b60201c565b506100d87f9f2df0fed2c77648de5860a4cc508cd0818c85b8b8a1ab4ceeef8d981c8956a6336101a260201b60201c565b5061036e565b60008060009054906101000a900473ffffffffffffffffffffffffffffffffffffffff169050816000806101000a81548173ffffffffffffffffffffffffffffffffffffffff021916908373ffffffffffffffffffffffffffffffffffffffff1602179055508173ffffffffffffffffffffffffffffffffffffffff168173ffffffffffffffffffffffffffffffffffffffff167f8be0079c531659141344cd1fd0a4f28419497f9722a3daafe3b4186f6b6457e060405160405180910390a35050565b60006101b4838361029f60201b60201c565b61029457600180600085815260200190815260200160002060000160008473ffffffffffffffffffffffffffffffffffffffff1673ffffffffffffffffffffffffffffffffffffffff16815260200190815260200160002060006101000a81548160ff02191690831515021790555061023161030a60201b60201c565b73ffffffffffffffffffffffffffffffffffffffff168273ffffffffffffffffffffffffffffffffffffffff16847f2f8788117e7eff1d82e926ec794901d17c78024a50270940304540a733656f0d60405160405180910390a460019050610299565b600090505b92915050565b60006001600084815260200190815260200160002060000160008373ffffffffffffffffffffffffffffffffffffffff1673ffffffffffffffffffffffffffffffffffffffff16815260200190815260200160002060009054906101000a900460ff16905092915050565b600033905090565b600073ffffffffffffffffffffffffffffffffffffffff82169050919050565b600061033d82610312565b9050919050565b61034d81610332565b82525050565b60006020820190506103686000830184610344565b92915050565b610cf98061037d6000396000f3fe608060405234801561001057600080fd5b50600436106100f55760003560e01c8063893d20e811610097578063aa271e1a11610066578063aa271e1a1461025e578063d53913931461028e578063d547741f146102ac578063f2fde38b146102c8576100f5565b8063893d20e8146101d45780638da5cb5b146101f257806391d1485414610210578063a217fddf14610240576100f5565b806336568abe116100d357806336568abe146101765780633dd1eb611461019257806369e2f0fb146101ae578063715018a6146101ca576100f5565b806301ffc9a7146100fa578063248a9ca31461012a5780632f2ff15d1461015a575b600080fd5b610114600480360381019061010f9190610ab5565b6102e4565b6040516101219190610afd565b60405180910390f35b610144600480360381019061013f9190610b4e565b61035e565b6040516101519190610b8a565b60405180910390f35b610174600480360381019061016f9190610c03565b61037e565b005b610190600480360381019061018b9190610c03565b6103a0565b005b6101ac60048036038101906101a79190610c43565b61041b565b005b6101c860048036038101906101c39190610c43565b610450565b005b6101d2610485565b005b6101dc610499565b6040516101e99190610c7f565b60405180910390f35b6101fa6104a8565b6040516102079190610c7f565b60405180910390f35b61022a60048036038101906102259190610c03565b6104d1565b6040516102379190610afd565b60405180910390f35b61024861053c565b6040516102559190610b8a565b60405180910390f35b61027860048036038101906102739190610c43565b610543565b6040516102859190610afd565b60405180910390f35b610296610586565b6040516102a39190610b8a565b60405180910390f35b6102c660048036038101906102c19190610c03565b6105aa565b005b6102e260048036038101906102dd9190610c43565b6105cc565b005b60007f7965db0b000000000000000000000000000000000000000000000000000000007bffffffffffffffffffffffffffffffffffffffffffffffffffffffff1916827bffffffffffffffffffffffffffffffffffffffffffffffffffffffff19161480610357575061035682610652565b5b9050919050565b600060016000838152602001908152602001600020600101549050919050565b6103878261035e565b610390816106bc565b61039a83836106d0565b50505050565b6103a86107c1565b73ffffffffffffffffffffffffffffffffffffffff168173ffffffffffffffffffffffffffffffffffffffff161461040c576040517f6697b23200000000000000000000000000000000000000000000000000000000815260040160405180910390fd5b61041682826107c9565b505050565b6104236108bc565b61044d7f9f2df0fed2c77648de5860a4cc508cd0818c85b8b8a1ab4ceeef8d981c8956a68261037e565b50565b6104586108bc565b6104827f9f2df0fed2c77648de5860a4cc508cd0818c85b8b8a1ab4ceeef8d981c8956a6826105aa565b50565b61048d6108bc565b6104976000610943565b565b60006104a36104a8565b905090565b60008060009054906101000a900473ffffffffffffffffffffffffffffffffffffffff16905090565b60006001600084815260200190815260200160002060000160008373ffffffffffffffffffffffffffffffffffffffff1673ffffffffffffffffffffffffffffffffffffffff16815260200190815260200160002060009054906101000a900460ff16905092915050565b6000801b81565b600061056f7f9f2df0fed2c77648de5860a4cc508cd0818c85b8b8a1ab4ceeef8d981c8956a6836104d1565b61057c5760009050610581565b600190505b919050565b7f9f2df0fed2c77648de5860a4cc508cd0818c85b8b8a1ab4ceeef8d981c8956a681565b6105b38261035e565b6105bc816106bc565b6105c683836107c9565b50505050565b6105d46108bc565b600073ffffffffffffffffffffffffffffffffffffffff168173ffffffffffffffffffffffffffffffffffffffff16036106465760006040517f1e4fbdf700000000000000000000000000000000000000000000000000000000815260040161063d9190610c7f565b60405180910390fd5b61064f81610943565b50565b60007f01ffc9a7000000000000000000000000000000000000000000000000000000007bffffffffffffffffffffffffffffffffffffffffffffffffffffffff1916827bffffffffffffffffffffffffffffffffffffffffffffffffffffffff1916149050919050565b6106cd816106c86107c1565b610a07565b50565b60006106dc83836104d1565b6107b657600180600085815260200190815260200160002060000160008473ffffffffffffffffffffffffffffffffffffffff1673ffffffffffffffffffffffffffffffffffffffff16815260200190815260200160002060006101000a81548160ff0219169083151502179055506107536107c1565b73ffffffffffffffffffffffffffffffffffffffff168273ffffffffffffffffffffffffffffffffffffffff16847f2f8788117e7eff1d82e926ec794901d17c78024a50270940304540a733656f0d60405160405180910390a4600190506107bb565b600090505b92915050565b600033905090565b60006107d583836104d1565b156108b15760006001600085815260200190815260200160002060000160008473ffffffffffffffffffffffffffffffffffffffff1673ffffffffffffffffffffffffffffffffffffffff16815260200190815260200160002060006101000a81548160ff02191690831515021790555061084e6107c1565b73ffffffffffffffffffffffffffffffffffffffff168273ffffffffffffffffffffffffffffffffffffffff16847ff6391f5c32d9c69d2a47ea670b442974b53935d1edc7fd64eb21e047a839171b60405160405180910390a4600190506108b6565b600090505b92915050565b6108c46107c1565b73ffffffffffffffffffffffffffffffffffffffff166108e26104a8565b73ffffffffffffffffffffffffffffffffffffffff1614610941576109056107c1565b6040517f118cdaa70000000000000000000000000000000000000000000000000000000081526004016109389190610c7f565b60405180910390fd5b565b60008060009054906101000a900473ffffffffffffffffffffffffffffffffffffffff169050816000806101000a81548173ffffffffffffffffffffffffffffffffffffffff021916908373ffffffffffffffffffffffffffffffffffffffff1602179055508173ffffffffffffffffffffffffffffffffffffffff168173ffffffffffffffffffffffffffffffffffffffff167f8be0079c531659141344cd1fd0a4f28419497f9722a3daafe3b4186f6b6457e060405160405180910390a35050565b610a1182826104d1565b610a545780826040517fe2517d3f000000000000000000000000000000000000000000000000000000008152600401610a4b929190610c9a565b60405180910390fd5b5050565b600080fd5b60007fffffffff0000000000000000000000000000000000000000000000000000000082169050919050565b610a9281610a5d565b8114610a9d57600080fd5b50565b600081359050610aaf81610a89565b92915050565b600060208284031215610acb57610aca610a58565b5b6000610ad984828501610aa0565b91505092915050565b60008115159050919050565b610af781610ae2565b82525050565b6000602082019050610b126000830184610aee565b92915050565b6000819050919050565b610b2b81610b18565b8114610b3657600080fd5b50565b600081359050610b4881610b22565b92915050565b600060208284031215610b6457610b63610a58565b5b6000610b7284828501610b39565b91505092915050565b610b8481610b18565b82525050565b6000602082019050610b9f6000830184610b7b565b92915050565b600073ffffffffffffffffffffffffffffffffffffffff82169050919050565b6000610bd082610ba5565b9050919050565b610be081610bc5565b8114610beb57600080fd5b50565b600081359050610bfd81610bd7565b92915050565b60008060408385031215610c1a57610c19610a58565b5b6000610c2885828601610b39565b9250506020610c3985828601610bee565b9150509250929050565b600060208284031215610c5957610c58610a58565b5b6000610c6784828501610bee565b91505092915050565b610c7981610bc5565b82525050565b6000602082019050610c946000830184610c70565b92915050565b6000604082019050610caf6000830185610c70565b610cbc6020830184610b7b565b939250505056fea2646970667358221220a9008c5aa9041f2b925e4398591e28e027940c6cb3c472c56c47a2e6fffa5edc64736f6c63430008190033",
  "immutableReferences": {},
  "source": "// SPDX-License-Identifier: MIT\npragma solidity 0.8.25;\n\nimport '@openzeppelin/contracts/access/Ownable.sol';\nimport '@openzeppelin/contracts/access/AccessControl.sol';\n\ncontract UserAccessControl is Ownable, AccessControl {\n  bytes32 public constant MINTER_ROLE = keccak256('MINTER_ROLE');\n\n  /**\n   * @dev Grants `DEFAULT_ADMIN_ROLE` to the account that deploys the contract.\n   * Grants `MINTER_ROLE` to the account that deploys the contract.\n   */\n  constructor() Ownable(msg.sender) {\n    _grantRole(DEFAULT_ADMIN_ROLE, msg.sender);\n    _grantRole(MINTER_ROLE, msg.sender);\n  }\n\n  /**\n   * @dev Grants `MINTER_ROLE` to the specified user.\n   * Can only be called by the contract owner.\n   */\n  function grantMinterRole(address user) public onlyOwner {\n    grantRole(MINTER_ROLE, user);\n  }\n\n  /**\n   * @dev Revokes `MINTER_ROLE` from the specified user.\n   * Can only be called by the contract owner.\n   */\n  function revokeMinterRole(address user) public onlyOwner {\n    revokeRole(MINTER_ROLE, user);\n  }\n\n  /**\n   * @dev Test wheter use has a `MINTER_ROLE`.\n   */\n  function isMinter(address user) public view returns (bool canActivate) {\n    if (!hasRole(MINTER_ROLE, user)) return false;\n    return true;\n  }\n\n  /**\n   * @dev Get owner\n   */\n  function getOwner() public view returns (address) {\n    return owner();\n  }\n}\n",
  "sourcePath": "/Users/patrik/bc/frontend/company-chain/smart-contracts/contracts/UserAccessControl.sol",
  "compiler": {
    "name": "solc",
    "version": "0.8.25+commit.b61c2a91.Emscripten.clang"
  },
  "schemaVersion": "3.4.16",
  "updatedAt": "2024-05-01T17:45:05.208Z",
  "networkType": "ethereum",
  "devdoc": {
    "errors": {
      "AccessControlBadConfirmation()": [
        {
          "details": "The caller of a function is not the expected one. NOTE: Don't confuse with {AccessControlUnauthorizedAccount}."
        }
      ],
      "AccessControlUnauthorizedAccount(address,bytes32)": [
        {
          "details": "The `account` is missing a role."
        }
      ],
      "OwnableInvalidOwner(address)": [
        {
          "details": "The owner is not a valid owner account. (eg. `address(0)`)"
        }
      ],
      "OwnableUnauthorizedAccount(address)": [
        {
          "details": "The caller account is not authorized to perform an operation."
        }
      ]
    },
    "events": {
      "RoleAdminChanged(bytes32,bytes32,bytes32)": {
        "details": "Emitted when `newAdminRole` is set as ``role``'s admin role, replacing `previousAdminRole` `DEFAULT_ADMIN_ROLE` is the starting admin for all roles, despite {RoleAdminChanged} not being emitted signaling this."
      },
      "RoleGranted(bytes32,address,address)": {
        "details": "Emitted when `account` is granted `role`. `sender` is the account that originated the contract call, an admin role bearer except when using {AccessControl-_setupRole}."
      },
      "RoleRevoked(bytes32,address,address)": {
        "details": "Emitted when `account` is revoked `role`. `sender` is the account that originated the contract call:   - if using `revokeRole`, it is the admin role bearer   - if using `renounceRole`, it is the role bearer (i.e. `account`)"
      }
    },
    "kind": "dev",
    "methods": {
      "constructor": {
        "details": "Grants `DEFAULT_ADMIN_ROLE` to the account that deploys the contract. Grants `MINTER_ROLE` to the account that deploys the contract."
      },
      "getOwner()": {
        "details": "Get owner"
      },
      "getRoleAdmin(bytes32)": {
        "details": "Returns the admin role that controls `role`. See {grantRole} and {revokeRole}. To change a role's admin, use {_setRoleAdmin}."
      },
      "grantMinterRole(address)": {
        "details": "Grants `MINTER_ROLE` to the specified user. Can only be called by the contract owner."
      },
      "grantRole(bytes32,address)": {
        "details": "Grants `role` to `account`. If `account` had not been already granted `role`, emits a {RoleGranted} event. Requirements: - the caller must have ``role``'s admin role. May emit a {RoleGranted} event."
      },
      "hasRole(bytes32,address)": {
        "details": "Returns `true` if `account` has been granted `role`."
      },
      "isMinter(address)": {
        "details": "Test wheter use has a `MINTER_ROLE`."
      },
      "owner()": {
        "details": "Returns the address of the current owner."
      },
      "renounceOwnership()": {
        "details": "Leaves the contract without owner. It will not be possible to call `onlyOwner` functions. Can only be called by the current owner. NOTE: Renouncing ownership will leave the contract without an owner, thereby disabling any functionality that is only available to the owner."
      },
      "renounceRole(bytes32,address)": {
        "details": "Revokes `role` from the calling account. Roles are often managed via {grantRole} and {revokeRole}: this function's purpose is to provide a mechanism for accounts to lose their privileges if they are compromised (such as when a trusted device is misplaced). If the calling account had been revoked `role`, emits a {RoleRevoked} event. Requirements: - the caller must be `callerConfirmation`. May emit a {RoleRevoked} event."
      },
      "revokeMinterRole(address)": {
        "details": "Revokes `MINTER_ROLE` from the specified user. Can only be called by the contract owner."
      },
      "revokeRole(bytes32,address)": {
        "details": "Revokes `role` from `account`. If `account` had been granted `role`, emits a {RoleRevoked} event. Requirements: - the caller must have ``role``'s admin role. May emit a {RoleRevoked} event."
      },
      "supportsInterface(bytes4)": {
        "details": "See {IERC165-supportsInterface}."
      },
      "transferOwnership(address)": {
        "details": "Transfers ownership of the contract to a new account (`newOwner`). Can only be called by the current owner."
      }
    },
    "version": 1
  },
  "userdoc": {
    "kind": "user",
    "methods": {},
    "version": 1
  }
}